:020000040000FA
:0400000094EF07F082
:020C00000000F2
:040C0800B4EF08F04D
:080C180091EF08F0D9CFE5FFD0
:100C2000E1CFD9FF00C0E5FF01C0E5FF02C0E5FF4D
:100C300003C0E5FF04C0E5FF020EDBCF00F0030EAA
:100C4000DBCF01F0C60E0024026E036A0F0E0322F2
:100C5000046A000E042202C0F6FF03C0F7FF04C0BE
:100C6000F8FF0900F5CF02F0036A046AD80E0026E7
:100C70000F0E0322000E042200C0F6FF03C0F7FF90
:100C800004C0F8FF0900F5CF00F0036A920E0026B9
:100C90000F0E032201500FE000C0E9FF03C0EAFF7E
:100CA000EFCF01F00250011200C0E9FF03C0EAFFDC
:100CB00001C0EFFF0FD000C0E9FF03C0EAFFEFCF94
:100CC00001F00250FF08011600C0E9FF03C0EAFF6F
:100CD00001C0EFFFE4CF04F0E4CF03F0E4CF02F073
:100CE000E4CF01F0E4CF00F0E4CFD9FF1200D9CF78
:100CF000E5FFE1CFD9FF00C0E5FF01C0E5FF02C07D
:100D0000E5FF03C0E5FF04C0E5FF020EDBCF00F006
:100D1000030EDBCF01F0C60E0024026E036A0F0E35
:100D20000322046A000E042202C0F6FF03C0F7FF8C
:100D300004C0F8FF0900F5CF02F0036A046AD80E78
:100D400000260F0E0322000E042200C0F6FF03C08F
:100D5000F7FF04C0F8FF0900F5CF00F0036A890E21
:100D600000260F0E032201500FE000C0E9FF03C070
:100D7000EAFFEFCF01F00250011200C0E9FF03C00B
:100D8000EAFF01C0EFFF0FD000C0E9FF03C0EAFF98
:100D9000EFCF01F00250FF08011600C0E9FF03C0C9
:100DA000EAFF01C0EFFFE4CF04F0E4CF03F0E4CFAB
:100DB00002F0E4CF01F0E4CF00F0E4CFD9FF12005D
:100DC000D9CFE5FFE1CFD9FF00C0E5FF01C0E5FFC6
:100DD00002C0E5FF03C0E5FF04C0E5FF020EDBCF64
:100DE00000F0C60E0024016E026A0F0E0222036A92
:100DF000000E032201C0F6FF02C0F7FF03C0F8FF98
:100E00000900F5CF01F0026A036AD80E00260F0E22
:100E10000222000E032200C0F6FF02C0F7FF03C04B
:100E2000F8FF0900F5CF00F0026A890E00260F0EC8
:100E3000022200C0E9FF02C0EAFFEFCF03F0015039
:100E40000314046E04500CE00150FF08046E0350BC
:100E5000041600C0E9FF02C0EAFF04C0EFFF08D09B
:100E60000350011200C0E9FF02C0EAFF01C0EFFF1A
:100E7000E4CF04F0E4CF03F0E4CF02F0E4CF01F0DC
:100E8000E4CF00F0E4CFD9FF1200D9CFE5FFE1CFE6
:100E9000D9FF00C0E5FF01C0E5FF02C0E5FF03C0C8
:100EA000E5FF020EDBCF00F0C60E0024016E026AE1
:100EB0000F0E0222036A000E032201C0F6FF02C0D9
:100EC000F7FF03C0F8FF0900F5CF01F0026A036ADB
:100ED000D80E00260F0E0222000E032200C0F6FFDD
:100EE00002C0F7FF03C0F8FF0900F5CF00F0026A67
:100EF000890E00260F0E022200C0E9FF02C0EAFFA1
:100F0000EFCF00F000500116015002E0010E01D0B9
:100F1000E86AE4CF03F0E4CF02F0E4CF01F0E4CFDD
:100F200000F0E4CFD9FF120018EEFFF028EEFFF03A
:100F3000F86AA68EA69C660EF66E120EF76E000E6E
:100F4000F86E0900F5CF05F00900F5CF06F034D0B2
:100F50000900F5CF00F00900F5CF01F00900F5CF49
:100F600002F009000900F5CFE9FF0900F5CFEAFF1B
:100F7000090009000900F5CF03F00900F5CF04F0DE
:100F800009000900F6CF07F0F7CF08F0F8CF09F015
:100F900000C0F6FF01C0F7FF02C0F8FF03D0090050
:100FA000F5CFEEFF0306FBE20406F9E207C0F6FF09
:100FB00008C0F7FF09C0F8FF0506CAE20606C8E246
:100FC0003FEC08F0FFD70102040810204080408069
:100FD00001020401020408200101010101010101D3
:100FE00002020202020000000000E806E56E630E45
:100FF00008EC08F0E4500BE000D0E56E630E08EC5E
:1010000008F000D000D00000E450E82EF6D712001F
:10101000E8060000E85007E000D000D000D000D083
:101020000000E82EFAD71200D9CFE5FFE1CFD9FFB3
:1010300000C0E5FF01C0E5FF02C0E5FF03C0E5FF1A
:10104000020EDBCF00F0030EDBCF01F0026A036A71
:101050000150035C02E10050025C06E20C0EF5EC6C
:1010600007F0024A032AF4D7E4CF03F0E4CF02F0FA
:10107000E4CF01F0E4CF00F0E4CFD9FF12009B8C65
:10108000580E006E020E016E00C002F001C003F0A7
:10109000FF0E0026012202500310F6E1800ED06EF2
:1010A000F26AF16AF06A9D6AA06AA36AF1949F905D
:1010B0009F929F6AA26AA56A9E6AA16AA46A21ECAD
:1010C00009F017EC09F02BEC09F0F9EC08F0FDD76A
:1010D0001200D9CFE5FFE1CFD9FF00C0E5FF01C085
:1010E000E5FF02C0E5FF03C0E5FF020EDBCF00F025
:1010F000030EDBCF01F0026A036A0150035C02E1D8
:101100000050025C03E2024A032AF7D7E4CF03F05F
:10111000E4CF02F0E4CF01F0E4CF00F0E4CFD9FF58
:101120001200D8CFE5FFE0CFE5FFE56EF3CFE5FF96
:10113000F4CFE5FFE9CFE5FFEACFE5FFFACFE5FF22
:10114000FBCFE5FFE4CFFBFFE4CFFAFFE4CFEAFFFC
:10115000E4CFE9FFE4CFF4FFE4CFF3FFE450E4CFC2
:10116000E0FFE4CFD8FF1000D8CFE5FFE0CFE5FFE8
:10117000E56EF3CFE5FFF4CFE5FFE9CFE5FFEACF7A
:10118000E5FFFACFE5FFFBCFE5FFE4CFFBFFE4CFC0
:10119000FAFFE4CFEAFFE4CFE9FFE4CFF4FFE4CFC6
:1011A000F3FFE450E4CFE0FFE4CFD8FF1000550E8A
:1011B000A76EAA0EA76E0E01FF91040E0E01F66F28
:1011C000050E0E01C96F060E0E01FB6F0A0E0E0111
:1011D000CB6F090E0E01CA6F0E0E0E01D16F120EEB
:1011E0000E01D26F550EA76EAA0EA76E0E01FF81DB
:1011F0001200010EE56E0C0EE56E77EC06F0E6527D
:10120000E652E56A320EE56E14EC08F0E652E6525C
:10121000E56A0C0EE56E77EC06F0E652E652E56AFA
:10122000320EE56E14EC08F0E652E65212000F01A1
:1012300048691F0E0F01496FD26AD16A0F01536BC3
:101240001200926A936A946A896A8A6A8B6A806ACF
:10125000816A826A1200E56A0C0EE56E0EEC06F0F9
:10126000E652E65212000100000C0000000E0000E1
:041270000100000079
:00000001FF
