:020000040000FA
:0400080010EF10F0F5
:04001C00FFFFFFFFE4
:10002000FFFFFFFFFFFFFFFFFFFFFFFFFFFFFFFFE0
:10003000FFFFFFFFFFFFFFFFFFFFFFFFFFFFFFFFD0
:10004000FFFFFFFFFFFFFFFFFFFFFFFFFFFFFFFFC0
:10005000FFFFFFFFFFFFFFFFFFFFFFFFFFFFFFFFB0
:10006000FFFFFFFFFFFFFFFFFFFFFFFFFFFFFFFFA0
:0A007000FFFFFFFFFFFFFFFFFFFF90
:1020000000CA40002E4100C0410066420002430069
:102010009E4300DA43001A20000054EF38F012000B
:10202000D8CFE5FFE0CFE5FFE56EF3CFE5FFF4CFD6
:10203000E5FFE9CFE5FFEACFE5FFFACFE5FFFBCF0C
:10204000E5FFD9CFE5FFE1CFD9FFF6CFE5FFF7CF29
:10205000E5FFF8CFE5FFF5CFE5FF60EC38F0E4CF22
:10206000F5FFE4CFF8FFE4CFF7FFE4CFF6FFE4CFCE
:10207000D9FFE4CFFBFFE4CFFAFFE4CFEAFFE4CFE0
:10208000E9FFE4CFF4FFE4CFF3FFE450E4CFE0FF57
:10209000E4CFD8FF1000D9CFE5FFE1CFD9FF00C0D2
:1020A000E5FF01C0E5FF02C0E5FF03C0E5FF04C096
:1020B000E5FF05C0E5FF79EC34F003015B6B5C6B79
:1020C000020E016EE50E006E800E026E000E056EB1
:1020D000440E046EBE0E036E000EE56E070EE56E36
:1020E0000550E56E0450E56E0350E56E0250E56E56
:1020F0000150E56E0050E56E11EC2EF0006EF3CF4E
:1021000001F0080EE12600500110D8A4DAD0020E2A
:10211000016EE50E006E800E026E000E056E440E1E
:10212000046ED40E036E0550E56E0450E56E035048
:10213000E56E0250E56E0150E56E0050E56E71EC03
:1021400024F00301526FF3CF53F3F4CF54F3060E90
:10215000E1260301525106E1535104E1545102E1D9
:102160006BEF18F0D88003015CAFD890D8B088D05E
:102170005C51800F800F02E1030E5B5DD8B080D010
:10218000FA6AFB6A03015B35FA36E834FA36FC0B6F
:10219000A00FE56E210EFA22000EFB22E450F96E2C
:1021A000D6EF10F0D7EF10F0E7EF10F069D0030191
:1021B0005451E56E5351E56E5251E56EBDEC28F079
:1021C00003015D6FF3CF5EF3030EE12659D0000EDD
:1021D000026E440E016EC60E006E000EE56E050E18
:1021E000E56E0250E56E0150E56E0050E56E0301AC
:1021F0005451E56E5351E56E5251E56E11EC2EF0DF
:10220000006EF3CF01F0080EE126005001100CE142
:1022100003015D51006E010EE56E0050E56E1BEC92
:1022200027F0E652E6522CD0000E026E440E016EEC
:10223000CC0E006E000EE56E060EE56E0250E56EE9
:102240000150E56E0050E56E03015451E56E5351A7
:10225000E56E5251E56E11EC2EF0006EF3CF01F0F9
:10226000080EE126005001100BE103015D51006EE4
:10227000000EE56E0050E56E1BEC27F0E652E652CC
:1022800003015B3F01D05C2B000E026E440E016E19
:10229000D60E006E0250E56E0150E56E0050E56E00
:1022A000000EE56E000EE56E000EE56E71EC24F09A
:1022B0000301526FF3CF53F3F4CF54F3060EE1262C
:1022C00048D7020E016EE50E006E800E026E000E03
:1022D000056E440E046ED80E036E000EE56E0C0EF5
:1022E000E56E0550E56E0450E56E0350E56E025054
:1022F000E56E0150E56E0050E56E11EC2EF0006EBB
:10230000F3CF01F0080EE12600500110D8A4DAD076
:10231000020E016EE50E006E800E026E000E056E5E
:10232000440E046ED40E036E0550E56E0450E56E47
:102330000350E56E0250E56E0150E56E0050E56E0B
:1023400071EC24F00301526FF3CF53F3F4CF54F345
:10235000060EE1260301525106E1535104E15451A6
:1023600002E16BEF18F0D88003015CAFD890D8B0D1
:1023700088D05C51800F800F02E1030E5B5DD8B006
:1023800080D0FA6AFB6A03015B35FA36E834FA3624
:10239000FC0BA20FE56E230EFA22000EFB22E45086
:1023A000F96ED7EF11F0D8EF11F0E8EF11F069D026
:1023B00003015451E56E5351E56E5251E56EBDEC8B
:1023C00028F003015D6FF3CF5EF3030EE12659D0D1
:1023D000000E026E440E016EE60E006E000EE56EFB
:1023E000040EE56E0250E56E0150E56E0050E56E9C
:1023F00003015451E56E5351E56E5251E56E11ECF7
:102400002EF0006EF3CF01F0080EE126005001100F
:102410000CE103015D51006E010EE56E0050E56EAA
:10242000ECEC27F0E652E6522CD0000E026E440E81
:10243000016EEC0E006E000EE56E030EE56E0250AE
:10244000E56E0150E56E0050E56E03015451E56EF6
:102450005351E56E5251E56E11EC2EF0006EF3CF44
:1024600001F0080EE126005001100BE103015D515F
:10247000006E000EE56E0050E56EECEC27F0E652C3
:10248000E65203015B3F01D05C2B000E026E440E4E
:10249000016ED60E006E0250E56E0150E56E0050E2
:1024A000E56E000EE56E000EE56E000EE56E71EC59
:1024B00024F00301526FF3CF53F3F4CF54F3060E1D
:1024C000E12648D7020E016EE50E006E800E026E08
:1024D000000E056E440E046EF00E036E000EE56EE7
:1024E0000B0EE56E0550E56E0450E56E0350E56E8B
:1024F0000250E56E0150E56E0050E56E11EC2EF0D5
:10250000006EF3CF01F0080EE12600500110D8A4B0
:102510009AD0020E016EE50E006E800E026E000E65
:10252000056E440E046ED40E036E0550E56E045025
:10253000E56E0350E56E0250E56E0150E56E005009
:10254000E56E71EC24F00301526FF3CF53F3F4CF37
:1025500054F3060EE1260301525106E1535104E102
:10256000545102E16BEF18F0D88003015CAFD890B2
:10257000D8B048D05C51800F800F02E1030E5B5D44
:10258000D8B040D0FA6AFB6A03015B35FA36E8340A
:10259000FA36FC0BA40FE56E250EFA22000EFB2284
:1025A000E450F96ED8EF12F0D9EF12F0E9EF12F023
:1025B00029D003015451E56E5351E56E5251E56E39
:1025C000BDEC28F003015D6FF3CF5EF3030EE1264F
:1025D00019D003015D51006E03015451E56E535152
:1025E000E56E5251E56EBDEC28F0016EF3CF02F0BE
:1025F000030EE1260150E56E0050E56E89EC36F0E1
:10260000E652E65203015B3F01D05C2B000E026EE6
:10261000440E016ED60E006E0250E56E0150E56E5E
:102620000050E56E000EE56E000EE56E000EE56EE4
:1026300071EC24F00301526FF3CF53F3F4CF54F352
:10264000060EE12688D7020E016EE50E006E800EA2
:10265000026E000E056E440E046EFC0E036E000E3C
:10266000E56E0B0EE56E0550E56E0450E56E035009
:10267000E56E0250E56E0150E56E0050E56E11EC1E
:102680002EF0006EF3CF01F0080EE126005001108D
:10269000D8A481D0020E016EE50E006E800E026E8F
:1026A000000E056E440E046ED40E036E0550E56EEA
:1026B0000450E56E0350E56E0250E56E0150E56E84
:1026C0000050E56E71EC24F00301526FF3CF53F329
:1026D000F4CF54F3060EE1260301525106E15351A3
:1026E00004E1545102E16BEF18F003015B5102E188
:1026F0005C5130E003015B51010A02E15C5101E0F1
:1027000029D003015451E56E5351E56E5251E56EE7
:10271000BDEC28F0006EF3CF01F0030EE12600506F
:10272000E56EB8EC2AF0006EE652016A000E046E07
:10273000450E036E080E026E0150E56E0050E56E08
:102740000450E56E0350E56E0250E56EBFEC34F0C8
:10275000050EE12603015B3F01D05C2B000E026EEB
:10276000450E016E0C0E006E0250E56E0150E56ED6
:102770000050E56E000EE56E000EE56E000EE56E93
:1027800071EC24F00301526FF3CF53F3F4CF54F301
:10279000060EE126A1D7020E016EE50E006E800E38
:1027A000026E000E056E450E046E0E0E036E000ED8
:1027B000E56E0A0EE56E0550E56E0450E56E0350B9
:1027C000E56E0250E56E0150E56E0050E56E11ECCD
:1027D0002EF0006EF3CF01F0080EE126005001103C
:1027E000D8A482D0020E016EE50E006E800E026E3D
:1027F000000E056E440E046ED40E036E0550E56E99
:102800000450E56E0350E56E0250E56E0150E56E32
:102810000050E56E71EC24F00301526FF3CF53F3D7
:10282000F4CF54F3060EE1260301525106E1535151
:1028300004E1545102E16BEF18F003015B5102E136
:102840005C5131E003015B51010A02E15C5101E09E
:102850002AD003015451E56E5351E56E5251E56E95
:10286000BDEC28F0006EF3CF01F0030EE12600501E
:10287000E56E05EC33F0006EF3CF01F0E652000E8A
:10288000046E450E036E080E026E0150E56E005098
:10289000E56E0450E56E0350E56E0250E56EBFEC48
:1028A00034F0050EE12603015B3F01D05C2B000EE6
:1028B000026E450E016E0C0E006E0250E56E015068
:1028C000E56E0050E56E000EE56E000EE56E000E42
:1028D000E56E71EC24F00301526FF3CF53F3F4CFA4
:1028E00054F3060EE126A0D7020E016EE50E006E2F
:1028F000800E026E000E056E450E046E1A0E036EFB
:10290000000EE56E0A0EE56E0550E56E0450E56EAC
:102910000350E56E0250E56E0150E56E0050E56E25
:1029200011EC2EF0006EF3CF01F0080EE1260050FE
:102930000110D8A481D0020E016EE50E006E800E4B
:10294000026E000E056E440E046ED40E036E05502A
:10295000E56E0450E56E0350E56E0250E56E0150E1
:10296000E56E0050E56E71EC24F00301526FF3CF79
:1029700053F3F4CF54F3060EE1260301525106E15E
:10298000535104E1545102E16BEF18F003015B5124
:1029900002E15C5130E003015B51010A02E15C514C
:1029A00001E029D003015451E56E5351E56E5251B7
:1029B000E56EBDEC28F0006EF3CF01F0030EE126CA
:1029C0000050E56E39EC38F0006EE652016A000EF8
:1029D000046E450E036E080E026E0150E56E005047
:1029E000E56E0450E56E0350E56E0250E56EBFECF7
:1029F00034F0050EE12603015B3F01D05C2B000E95
:102A0000026E450E016E0C0E006E0250E56E015016
:102A1000E56E0050E56E000EE56E000EE56E000EF0
:102A2000E56E71EC24F00301526FF3CF53F3F4CF52
:102A300054F3060EE126A1D7020E016EE50E006EDC
:102A4000800E026E000E056E450E046E260E036E9D
:102A5000000EE56E0B0EE56E0550E56E0450E56E5A
:102A60000350E56E0250E56E0150E56E0050E56ED4
:102A700011EC2EF0006EF3CF01F0080EE1260050AD
:102A80000110D8A4B7D0020E016EE50E006E800EC4
:102A9000026E000E056E440E046ED40E036E0550D9
:102AA000E56E0450E56E0350E56E0250E56E015090
:102AB000E56E0050E56E71EC24F00301526FF3CF28
:102AC00053F3F4CF54F3060EE1260301525106E10D
:102AD000535104E1545102E16BEF18F0D880030127
:102AE0005CAFD890D8B065D05C51800F800F02E108
:102AF000030E5B5DD8B05DD0FA6AFB6A03015B35FB
:102B0000FA36E834FA36FC0B180FE56E2B0EFA2273
:102B1000000EFB22E450F96E92EF15F093EF15F0E2
:102B2000A3EF15F046D003015451E56E5351E56E05
:102B30005251E56EBDEC28F003015D6FF3CF5EF3FB
:102B4000030EE12636D0000E026E450E016E0C0E0D
:102B5000006E0250E56E0150E56E0050E56E030117
:102B60005451E56E5351E56E5251E56E71EC24F00F
:102B70000301526FF3CF53F3F4CF54F3060EE12663
:102B800003015D51006E03015451E56E5351E56E32
:102B90005251E56EBDEC28F0016EF3CF02F0030E4A
:102BA000E1260150E56E0050E56EA0EC37F0E652EC
:102BB000E65203015B3F01D05C2B000E026E440E17
:102BC000016ED60E006E0250E56E0150E56E0050AB
:102BD000E56E000EE56E000EE56E000EE56E71EC22
:102BE00024F00301526FF3CF53F3F4CF54F3060EE6
:102BF000E1266BD7020E016EE50E006E800E026EAE
:102C0000000E056E450E046E320E036E000EE56E6C
:102C1000050EE56E0550E56E0450E56E0350E56E59
:102C20000250E56E0150E56E0050E56E11EC2EF09D
:102C3000006EF3CF01F0080EE12600500110D8A479
:102C40006ED0020E016EE50E006E800E026E000E5A
:102C5000056E440E046ED40E036E0550E56E0450EE
:102C6000E56E0350E56E0250E56E0150E56E0050D2
:102C7000E56E71EC24F00301526FF3CF53F3F4CF00
:102C800054F3060EE1260301525106E1535104E1CB
:102C9000545102E16BEF18F003015B5102E15C510A
:102CA0001DE003015B51010A02E15C5101E016D015
:102CB00003015451E56E5351E56E5251E56EBDEC82
:102CC00028F0006EF3CF01F0030EE1260150E56E0F
:102CD0000050E56E36EC36F0E652E65203015B3FFB
:102CE00001D05C2B000E026E450E016E0C0E006EC4
:102CF0000250E56E0150E56E0050E56E000EE56E87
:102D0000000EE56E000EE56E71EC24F00301526FCB
:102D1000F3CF53F3F4CF54F3060EE126B4D7020EEB
:102D2000016EE50E006E800E026E000E056E450E01
:102D3000046E380E036E000EE56E110EE56E055042
:102D4000E56E0450E56E0350E56E0250E56E0150ED
:102D5000E56E0050E56E11EC2EF0006EF3CF01F041
:102D6000080EE12600500110D8A47DD0020E016E9D
:102D7000E50E006E800E026E000E056E440E046EAF
:102D8000D40E036E0550E56E0450E56E0350E56EFB
:102D90000250E56E0150E56E0050E56E71EC24F0D6
:102DA0000301526FF3CF53F3F4CF54F3060EE12631
:102DB0000301525105E1535103E1545101E18BD11B
:102DC00003015B5102E15C512DE003015B51010AFB
:102DD00002E15C5101E026D003015451E56E5351EC
:102DE000E56E5251E56EBDEC28F0006EF3CF01F0B8
:102DF000030EE1260150E56E0050E56E61EC36F001
:102E0000E652E652000E026E450E016E4A0E006E4C
:102E10000250E56E0150E56E0050E56EBFEC34F0F7
:102E2000030EE12603015B3F01D05C2B000E026E16
:102E3000450E016E0C0E006E0250E56E0150E56EFF
:102E40000050E56E000EE56E000EE56E000EE56EBC
:102E500071EC24F00301526FF3CF53F3F4CF54F32A
:102E6000060EE126A5D7020E016EE50E006E800E5D
:102E7000026E000E056E450E046E500E036E055078
:102E8000E56E0450E56E0350E56E0250E56E0150AC
:102E9000E56E0050E56E99EC2EF0006EF3CF01F078
:102EA000060EE1260050011026E103015F6B606B06
:102EB00003015F51006E000EE56E0050E56E1BECE5
:102EC00027F0E652E65203015F51006E000EE56EF8
:102ED0000050E56EECEC27F0E652E65203015F3F4E
:102EE00001D0602B03016051800F800F02E1160EAC
:102EF0005F5DDEE3F0D0020E016EE50E006E800E27
:102F0000026E000E056E450E046E5A0E036E0550DD
:102F1000E56E0450E56E0350E56E0250E56E01501B
:102F2000E56E0050E56E99EC2EF0006EF3CF01F0E7
:102F3000060EE126005001101BE103015F6B606B80
:102F400003015F51006E010EE56E0050E56E1BEC53
:102F500027F0E652E65203015F3F01D0602B0301E8
:102F60006051800F800F02E1160E5F5DE9E3B3D080
:102F7000020E016EE50E006E800E026E000E056EF2
:102F8000450E046E640E036E0550E56E0450E56E4A
:102F90000350E56E0250E56E0150E56E0050E56E9F
:102FA00099EC2EF0006EF3CF01F0060EE1260050F2
:102FB000011026E103015F6B606B03015F51006E3E
:102FC000000EE56E0050E56E1BEC27F0E652E6526F
:102FD00003015F51006E010EE56E0050E56EECECF2
:102FE00027F0E652E65203015F3F01D0602B030158
:102FF0006051800F800F02E1160E5F5DDEE36BD043
:10300000020E016EE50E006E800E026E000E056E61
:10301000450E046E6C0E036E0550E56E0450E56EB1
:103020000350E56E0250E56E0150E56E0050E56E0E
:1030300099EC2EF0006EF3CF01F0060EE126005061
:10304000011026E103015F6B606B03015F51006EAD
:10305000000EE56E0050E56E1BEC27F0E652E652DE
:1030600003015F51006E000EE56E0050E56EECEC62
:1030700027F0E652E65203015F3F01D0602B0301C7
:103080006051800F800F02E1160E5F5DDEE323D0FA
:10309000020E016EE50E006E800E026E000E056ED1
:1030A000450E046E740E036E0550E56E0450E56E19
:1030B0000350E56E0250E56E0150E56E0050E56E7E
:1030C00099EC2EF0006EF3CF01F0060EE1260050D1
:1030D000011001E1FF00E4CF05F0E4CF04F0E4CFFC
:1030E00003F0E4CF02F0E4CF01F0E4CF00F0E4CF4E
:1030F000D9FF1200D9CFE5FFE1CFD9FF00C0E5FF2E
:1031000001C0E5FF02C0E5FF03C0E5FF04C0E5FF25
:1031100005C0E5FF06C0E5FF07C0E5FF08C0E5FF05
:1031200009C0E5FF0AC0E5FF0BC0E5FF0CC0E5FFE5
:103130000DC0E5FF0EC0E5FF0FC0E5FF10C0E5FFC5
:1031400011C0E5FF12C0E5FF13C0E5FF14C0E5FFA5
:1031500015C0E5FF16C0E5FF17C0E5FF18C0E5FF85
:1031600019C0E5FF020EDBCF00F0030EDBCF01F04C
:10317000040EDBCF02F0050EDBCF03F0060EDBCF33
:1031800004F0070EDBCF05F0080EDBCF06F0090ECA
:10319000DBCF07F00A0EDBCF08F0096A020E0A6ED9
:1031A00003C0E9FF04C0F3FF055029EC00F00B6EEB
:1031B0000B5002E140EF1DF00C6A0B50250A02E0B3
:1031C00027EF1DF00B6A0D6A032A02E3044A052A61
:1031D00003C0E9FF04C0F3FF055029EC00F00E6EB8
:1031E0000E50D8B440EF1DF00E50250A02E127EF33
:1031F0001DF00E502D0A06E1032A02E3044A052AB7
:10320000010E0B6E03C00EF004C00FF005C010F0ED
:103210000EC0E9FF0FC0F3FF105029EC00F0300A98
:1032200006E10E2A02E30F4A102A0B82F1D70EC0E4
:10323000E9FF0FC0F3FF105029EC00F0116E300EC3
:10324000115C13E33A0E115C10E20D500A0DF3CF3E
:103250000DF0D00E11260D50126E115012240D6E6D
:103260000E2A02E30F4A102AE2D70EC003F00FC065
:1032700004F010C005F00EC0E9FF0FC0F3FF1050BE
:1032800029EC00F02E0A34E10E50010F036E000EFF
:103290000F20046E000E1020056E0A6A03C00EF0A7
:1032A00004C00FF005C010F00EC0E9FF0FC0F3FF1F
:1032B000105029EC00F0116E300E115C13E33A0E41
:1032C000115C10E20A500A0DF3CF0AF0D00E11265D
:1032D0000A50126E115012240A6E0E2A02E30F4A8F
:1032E000102AE2D70EC003F00FC004F010C005F0A2
:1032F00003C0E9FF04C0F3FF055029EC00F00E6E97
:10330000660A01E040D00650040F0F6E000E072041
:10331000106E000E0820116E0FC006F010C007F0EE
:1033200011C008F0FC0E0F26FF0E102211220FC054
:10333000E9FF10C0F3FF11502FEC00F00F6EF3CF38
:1033400010F0F4CF11F0E9CF12F00A50E56EE56A03
:103350000B50E56E0D50E56E1250E56E1150E56EA6
:103360001050E56E0F50E56E0250E56E0150E56EAF
:103370000050E56E90EC1DF00F6E0B0EE1260F5025
:1033800009263AEF1DF00E50730A01E045D00650B1
:10339000030F0F6E000E0720106E000E0820116E36
:1033A0000FC006F010C007F011C008F0FD0E0F2688
:1033B000FF0E102211220FC0E9FF10C0F3FF1150C1
:1033C0002DEC00F00F6EF3CF10F0F4CF11F01010D1
:1033D000111006E1000E116E440E106E720E0F6E8B
:1033E0000B50E56E0D50E56E1150E56E1050E56E18
:1033F0000F50E56E0250E56E0150E56E0050E56E2F
:1034000049EC26F00F6E080EE1260950106E0F50A1
:103410001024096E3AEF1DF00E506C0A06E1032AE3
:1034200002E3044A052A010E0C6E03C0E9FF04C042
:10343000F3FF055029EC00F00E6E750A01E06CD028
:103440000C5023E00650040F0F6E000E0720106E84
:10345000000E0820116E0FC006F010C007F011C05A
:1034600008F0FC0E0F26FF0E102211220FC0E9FFFC
:1034700010C0F3FF11502FEC00F00F6EF3CF10F0DF
:10348000F4CF11F0E9CF12F024D00650020F136EE2
:10349000000E0720146E000E0820156E13C006F0F3
:1034A00014C007F015C008F0FE0E1326FF0E1422FC
:1034B000152213C0E9FF14C0F3FF15502BEC00F0E8
:1034C000136EF3CF14F013C00FF014C010F0116A94
:1034D000126A610EE56EE56A0B50E56E0D50E56E01
:1034E000E56A0A0EE56E0C50E56E1250E56E11505D
:1034F000E56E1050E56E0F50E56E0250E56E01501E
:10350000E56E0050E56EBDEC22F0136E0E0EE12666
:10351000135009263AEF1DF00E50640A04E00E50D5
:10352000690A01E075D00C5023E00650040F136EB9
:10353000000E0720146E000E0820156E13C006F052
:1035400014C007F015C008F0FC0E1326FF0E14225D
:10355000152213C0E9FF14C0F3FF15502FEC00F043
:10356000136EF3CF14F0F4CF15F0E9CF16F024D09A
:103570000650020F176E000E0720186E000E08206E
:10358000196E17C006F018C007F019C008F0FE0E3B
:103590001726FF0E1822192217C0E9FF18C0F3FFE3
:1035A00019502BEC00F0176EF3CF18F017C013F082
:1035B00018C014F0156A166A13C00FF014C010F08A
:1035C00015C011F016C012F0610EE56EE56A0B50E1
:1035D000E56E0D50E56E010EE56E0A0EE56E0C50BF
:1035E000E56E1250E56E1150E56E1050E56E0F500D
:1035F000E56E0250E56E0150E56E0050E56EBDECE3
:1036000022F0136E0E0EE126135009263AEF1DF03C
:103610000E50780A04E00E50700A01E073D00C508E
:1036200023E00650040F136E000E0720146E000EE8
:103630000820156E13C006F014C007F015C008F07E
:10364000FC0E1326FF0E1422152213C0E9FF14C02E
:10365000F3FF15502FEC00F0136EF3CF14F0F4CFFE
:1036600015F0E9CF16F024D00650020F176E000EA9
:103670000720186E000E0820196E17C006F018C03B
:1036800007F019C008F0FE0E1726FF0E18221922A7
:1036900017C0E9FF18C0F3FF19502BEC00F0176EAC
:1036A000F3CF18F017C013F018C014F0156A166A9B
:1036B00013C00FF014C010F015C011F016C012F0B6
:1036C000610EE56EE56A0B50E56E0D50E56EE56A3C
:1036D000100EE56E0C50E56E1250E56E1150E56E61
:1036E0001050E56E0F50E56E0250E56E0150E56E2C
:1036F0000050E56EBDEC22F0136E0E0EE126135065
:103700000926B8D10E50580A04E00E50500A01E0C4
:1037100073D00C5023E00650040F136E000E0720E8
:10372000146E000E0820156E13C006F014C007F0CA
:1037300015C008F0FC0E1326FF0E1422152213C02C
:10374000E9FF14C0F3FF15502FEC00F0136EF3CF18
:1037500014F0F4CF15F0E9CF16F024D00650020F84
:10376000176E000E0720186E000E0820196E17C085
:1037700006F018C007F019C008F0FE0E1726FF0E5D
:103780001822192217C0E9FF18C0F3FF19502BECBB
:1037900000F0176EF3CF18F017C013F018C014F034
:1037A000156A166A13C00FF014C010F015C011F09E
:1037B00016C012F0410EE56EE56A0B50E56E0D5035
:1037C000E56EE56A100EE56E0C50E56E1250E56E82
:1037D0001150E56E1050E56E0F50E56E0250E56E2B
:1037E0000150E56E0050E56EBDEC22F0136E0E0E3A
:1037F000E126135009263ED10E50620A01E073D033
:103800000C5023E00650040F136E000E0720146EB8
:10381000000E0820156E13C006F014C007F015C086
:1038200008F0FC0E1326FF0E1422152213C0E9FF28
:1038300014C0F3FF15502FEC00F0136EF3CF14F00B
:10384000F4CF15F0E9CF16F024D00650020F176E12
:10385000000E0720186E000E0820196E17C006F023
:1038600018C007F019C008F0FE0E1726FF0E182228
:10387000192217C0E9FF18C0F3FF19502BEC00F014
:10388000176EF3CF18F017C013F018C014F0156AB4
:10389000166A13C00FF014C010F015C011F016C056
:1038A00012F0610EE56EE56A0B50E56E0D50E56EA7
:1038B000E56A020EE56E0C50E56E1250E56E115091
:1038C000E56E1050E56E0F50E56E0250E56E01504A
:1038D000E56E0050E56EBDEC22F0136E0E0EE12693
:1038E00013500926C7D00E506F0A01E073D00C5058
:1038F00023E00650040F136E000E0720146E000E16
:103900000820156E13C006F014C007F015C008F0AB
:10391000FC0E1326FF0E1422152213C0E9FF14C05B
:10392000F3FF15502FEC00F0136EF3CF14F0F4CF2B
:1039300015F0E9CF16F024D00650020F176E000ED6
:103940000720186E000E0820196E17C006F018C068
:1039500007F019C008F0FE0E1726FF0E18221922D4
:1039600017C0E9FF18C0F3FF19502BEC00F0176ED9
:10397000F3CF18F017C013F018C014F0156A166AC8
:1039800013C00FF014C010F015C011F016C012F0E3
:10399000610EE56EE56A0B50E56E0D50E56EE56A69
:1039A000080EE56E0C50E56E1250E56E1150E56E96
:1039B0001050E56E0F50E56E0250E56E0150E56E59
:1039C0000050E56EBDEC22F00C6E0E0EE1260C50A0
:1039D000092650D00E50630A01E04CD00650020F69
:1039E0000C6E000E07200E6E000E08200F6E0CC02D
:1039F00006F00EC007F00FC008F0FE0E0C26FF0EFA
:103A00000E220F220CC0E9FF0EC0F3FF0F502BEC6B
:103A100000F00301596F5A6B0B50E56E0D50E56EC7
:103A2000800EE56E030EE56E590EE56E0250E56EF2
:103A30000150E56E0050E56E49EC26F00B6E080E65
:103A4000E12609500C6E0B500C24096E13D003C0F4
:103A5000E9FF04C0F3FF055029EC00F0E56E0250C9
:103A6000E56E0150E56E0050E56EA1EC2FF0040EFE
:103A7000E126092A032A02E3044A052AD0EF18F0B6
:103A800000500110021014E000C0E9FF01C0F3FF74
:103A900002502DEC00F0006EF3CF01F0F4CF02F0F5
:103AA000E56A00C0E9FF01C0F3FF025031EC00F00D
:103AB0000950E4CF19F0E4CF18F0E4CF17F0E4CFC9
:103AC00016F0E4CF15F0E4CF14F0E4CF13F0E4CF18
:103AD00012F0E4CF11F0E4CF10F0E4CF0FF0E4CF18
:103AE0000EF0E4CF0DF0E4CF0CF0E4CF0BF0E4CF18
:103AF0000AF0E4CF09F0E4CF08F0E4CF07F0E4CF18
:103B000006F0E4CF05F0E4CF04F0E4CF03F0E4CF17
:103B100002F0E4CF01F0E4CF00F0E4CFD9FF1200CF
:103B2000D9CFE5FFE1CFD9FF00C0E5FF01C0E5FF38
:103B300002C0E5FF03C0E5FF04C0E5FF05C0E5FFE7
:103B400006C0E5FF07C0E5FF08C0E5FF09C0E5FFC7
:103B50000AC0E5FF0BC0E5FF0CC0E5FF0DC0E5FFA7
:103B60000EC0E5FF0FC0E5FF10C0E5FF11C0E5FF87
:103B700012C0E5FF13C0E5FF14C0E5FF15C0E5FF67
:103B800016C0E5FF17C0E5FF18C0E5FF19C0E5FF47
:103B90001AC0E5FF1BC0E5FF1CC0E5FF1DC0E5FF27
:103BA0001EC0E5FF1FC0E5FF20C0E5FF020EDBCF12
:103BB00000F0030EDBCF01F0040EDBCF02F0050EA8
:103BC000DBCF03F0060EDBCF04F0070EDBCF05F0F2
:103BD000080EDBCF06F0090EDBCF07F00A0EDBCFB5
:103BE00008F00C0EDBCF09F00A6A0B6A0C6A0D6A4A
:103BF0000E6A0F6A106A116A030E136E1C0E126EA3
:103C0000800E146E030E166E280E156E800E176E43
:103C1000186A0B0E196E03500201FA6F0450FB6F05
:103C20000550FC6F0650FD6FD880FDAFD89023E3A0
:103C3000075012E008A210D02D0EE56E0250E56E7E
:103C40000150E56E0050E56EA1EC2FF0040EE12668
:103C5000010E186E07060FD02D0EE56E12C0E9FF9B
:103C600013C0F3FF145031EC00F0122A02E3134AA0
:103C7000142A0A0E196E0201FC35FD35036E046A22
:103C8000810E0326FA51046EFB51056E7F0EFC1562
:103C9000066E1A6A068E0350800F610F04E203500D
:103CA000800F970F1FE2690E03011C6F6E0E1D6FD0
:103CB000660E1E6F1F6B0850E56E0750E56E800E96
:103CC000E56E030EE56E1C0EE56E0250E56E0150CA
:103CD000E56E0050E56E49EC26F01B6E080EE126FD
:103CE0001B50AED10350800F690F25E303C01BF0BA
:103CF0001C6A03BE1C68E90E1B26D8A01C0604C063
:103D00000AF005C00BF006C00CF01AC00DF01B50F5
:103D100011E009E6E86CD8900A360B360C360D3601
:103D2000010FFAE37CD0D8900D320C320B320A32FC
:103D3000010FFAE374D0D88003AED890D8B04AD03F
:103D400003C01BF01C6A03BE1C681B5017081D6EC5
:103D5000000E1C5404C00AF005C00BF006C00CF0A5
:103D60001AC00DF01D5011E009E6E86CD8900D3234
:103D70000C320B320A32010FFAE307D0D8900A3620
:103D80000B360C360D36010FFAE31B4A1C2A04C011
:103D90001DF005C01EF006C01FF01AC020F01B5019
:103DA00011E009E6E86CD8901D361E361F36203625
:103DB000010FFAE307D0D89020321F321E321D3295
:103DC000010FFAE31D500E6E1E500F6E1F50106E45
:103DD000116A25D01A6A1B6A03BE1B68034A1B2A94
:103DE0001B1E036CD8B41B2A04C00EF005C00FF0D4
:103DF00006C010F01AC011F0035011E009E6E86C9B
:103E0000D890113210320F320E32010FFAE307D080
:103E1000D8900E360F3610361136010FFAE30A50DD
:103E20000B100C100D100FE1300EE56E12C0E9FF03
:103E300013C0F3FF145031EC00F0122A02E3134ACE
:103E4000142A190678D015C003F016C004F017C064
:103E500005F0066A19C015F00A500B100C100D1071
:103E6000D8B43CD0E56AE56AE56A0A0EE56E0D5005
:103E7000E56E0C50E56E0B50E56E0A50E56E4BECAE
:103E80002BF0166E080EE126300E162616C0E5FF42
:103E900003C0E9FF04C0F3FF055031EC00F0032A32
:103EA00002E3044A052AE56AE56AE56A0A0EE56E58
:103EB0000D50E56E0C50E56E0B50E56E0A50E56E48
:103EC000FBEC2CF00A6EF3CF0BF0F4CF0CF0E9CF43
:103ED0000DF0080EE126062A1506BED715C019F00A
:103EE00012C00AF013C00BF014C00CF006C00DF0A5
:103EF00006060D501AE0FF0E03260422052203C019
:103F0000E9FF04C0F3FF055029EC00F00D6E0DC071
:103F1000E5FF0AC0E9FF0BC0F3FF0C5031EC00F0E5
:103F20000A2AE4E30B4A0C2AE1D70AC012F00BC0BC
:103F300013F00CC014F0070E095C02E3060E096EC4
:103F40000950195CD8A019C009F0010E095CD8A06D
:103F500057D02E0EE56E12C0E9FF13C0F3FF1450C8
:103F600031EC00F0122A02E3134A142A12C003F0C3
:103F700013C004F014C005F0066A0950065C3AE26A
:103F80000E500E240A6E0F340B6E10340C6E11346A
:103F90000D6E0A500A260B360C360D360A500A26CC
:103FA0000B360C360D360E500E24156E0F34166E71
:103FB0001034176E1134196E15500A240E6E1650F7
:103FC0000B200F6E17500C20106E19500D200A6E2A
:103FD000300E0A260AC0E5FF03C0E9FF04C0F3FF64
:103FE000055031EC00F0032A02E3044A052A116A65
:103FF000062AC3D703C012F004C013F005C014F0A2
:10400000E56A12C0E9FF13C0F3FF145031EC00F071
:104010000850E56E0750E56E800EE56E030EE56E06
:104020001C0EE56E0250E56E0150E56E0050E56E27
:1040300049EC26F0006E080EE126185000260050CC
:10404000E4CF20F0E4CF1FF0E4CF1EF0E4CF1DF06A
:10405000E4CF1CF0E4CF1BF0E4CF1AF0E4CF19F06A
:10406000E4CF18F0E4CF17F0E4CF16F0E4CF15F06A
:10407000E4CF14F0E4CF13F0E4CF12F0E4CF11F06A
:10408000E4CF10F0E4CF0FF0E4CF0EF0E4CF0DF06A
:10409000E4CF0CF0E4CF0BF0E4CF0AF0E4CF09F06A
:1040A000E4CF08F0E4CF07F0E4CF06F0E4CF05F06A
:1040B000E4CF04F0E4CF03F0E4CF02F0E4CF01F06A
:1040C000E4CF00F0E4CFD9FF120012010002FF009C
:1040D000FF08D804AAFE000101020303090212002E
:1040E000010104C0000904000000FFFFFF040902F1
:1040F0002000010205C0000904000002FFFFFF05C7
:104100000705010240000007058202400000090285
:104110002000010304C0000904000002FFFFFF06A5
:104120000705010240000007058202400000DC4054
:1041300000EE40000E4100000403090426034A007B
:10414000650061006E002D0050006900650072007E
:104150007200650020004D0041004E0044004F00F9
:104160004E002203500069006E0067007500690070
:104170006E006F002000500072006F006A00650042
:1041800063007400040331001003440065006600FE
:10419000610075006C0074000C0346006C00610047
:1041A000730068001C03500069006E006700750012
:1041B00069006E006F0020006100700070006C00EC
:1041C0003841003C41006241008441008841009830
:1041D0004100A44100002E00001E20001E20001EF1
:1041E00020001E20001E20001E20001E20001E2079
:1041F000001E20001E20001E20001E20001E200089
:104200001E20001E20002E00003A00004200001E6A
:1042100020001E20001E20001E20001E20001E2048
:10422000001E20001E20001E20001E20001E200058
:104230001E20001E20002E00001E71002071001E96
:1042400020001E20001E20001E20001E20001E2018
:10425000001E20001E20001E20001E20001E200028
:104260001E20001E2000D64100D641000642003626
:1042700042003200001E20001E20001E20001E20D2
:10428000001E20001E20001E20001E20001E2000F8
:104290001E20001E20001E20001E20001E20001ECA
:1042A00020003200001E20004600001E20001E20BC
:1042B000001E20001E20001E20001E20001E2000C8
:1042C0001E20001E20001E20001E20001E20001E9A
:1042D00020003200001E20002471001E20001E203D
:1042E000001E20001E20001E20001E20001E200098
:1042F0001E20001E20001E20001E20001E20001E6A
:104300002000724200724200A24200D242002E00FF
:10431000001E20001E20001E20001E20001E200067
:104320001E20001E20001E20001E20001E20001E39
:1043300020001E20001E20001E20001E20002E0037
:10434000003E00001E20001E20001E20001E200037
:104350001E20001E20001E20001E20001E20001E09
:1043600020001E20001E20001E20001E20002E0007
:10437000002271001E20001E20001E20001E2000B2
:104380001E20001E20001E20001E20001E20001ED9
:1043900020001E20001E20001E20001E20000E43B4
:1043A000000E43003E43006E43003600001E200016
:1043B0001E20001E20001E20001E20001E20001EA9
:1043C00020001E20001E20001E20001E20001E2097
:1043D000001E20001E20001E2000AA4300AA430049
:1043E000AA4300AA43001201000202000040D804C0
:1043F000ABFE00000102000109024300020100C0FF
:104400001409040000010202010005240010010447
:10441000240200052406000105240100010705828D
:104420000310000209040100020A0000000705034E
:104430000240000007058302400000000403090455
:1044400016034A00500020004D0041004E00440079
:104450004F004E0020001203500069006E006700FC
:10446000750069006E006F003C44004044005644F3
:104470000000286E756C6C2900002566000025641C
:10448000000025780000256F0000256200000A0D5D
:1044900000002563000001020408102040804080D5
:1044A00001020401020408201000010101010101C0
:1044B0000101020202020200000000000000706917
:1044C0006E4D6F646500494E505554004F55545021
:1044D0005554000028002C006469676974616C57AA
:1044E0007269746500004849474800004C4F570006
:1044F000616E616C6F6757726974650064696769A2
:1045000074616C526561640025640A002900616E63
:10451000616C6F67526561640000656570726F6DF4
:10452000526561640000656570726F6D57726974E1
:10453000650064656C61790064656C61794D6963DF
:10454000726F7365636F6E647300446F6E650A000B
:10455000616C6C4F757470757400616C6C496E7031
:1045600075740000616C6C4869676800616C6C4C24
:104570006F770000726573657400D9CFE5FFE1CFF6
:10458000D9FF00C0E5FF01C0E5FF02C0E5FF03C0A1
:10459000E5FF04C0E5FF05C0E5FF06C0E5FF07C075
:1045A000E5FF08C0E5FF09C0E5FF0AC0E5FF0BC055
:1045B000E5FF0CC0E5FF0DC0E5FF0EC0E5FF0FC035
:1045C000E5FF10C0E5FF11C0E5FF12C0E5FF13C015
:1045D000E5FF14C0E5FF15C0E5FF16C0E5FF17C0F5
:1045E000E5FF18C0E5FF19C0E5FF1AC0E5FF1BC0D5
:1045F000E5FF020EDBCF00F0030EDBCF01F0040E6F
:10460000DBCF02F0050EDBCF03F0060EDBCF04F0AC
:10461000070EDBCF05F0080EDBCF06F0090EDBCF6F
:1046200007F00A0EDBCF08F00B0EDBCF09F00C0E03
:10463000DBCF0AF00D0EDBCF0BF00F0EDBCF0CF053
:104640000D6A0E6A03C00FF004C010F005C011F02F
:1046500006C012F003500410051006101BE1300EC6
:104660000301106F116B0B50E56E0A50E56E800E62
:10467000E56E030EE56E100EE56E0250E56E01501C
:10468000E56E0050E56E49EC26F0136E080EE1264B
:104690001350ECD0095036E008500A0A33E10750B5
:1046A0001CE00350096E0450136E0550146E065042
:1046B000156ED88015AED89010E3010E0D6E151C46
:1046C000126E141C116E131C106E091C0F6E0F2A33
:1046D00004E1102A02E1114A122A075013E1D8809E
:1046E00004AED8900FE3010E0D6E041E036CD8B417
:1046F000042A03C00FF004C010F0E86A04BEFF0EE5
:10470000116E126E030E046E1B0E036E800E056E8C
:10471000E56A03C0E9FF04C0F3FF31EC00F003C019
:1047200006F004C007F005C009F00F50101011107A
:104730001210D8B45AD008C013F0146A156A166A59
:10474000E56AE56AE56A1350E56E1250E56E1150B0
:10475000E56E1050E56E0F50E56E4BEC2BF0176ECA
:10476000F3CF18F0F4CF19F0E9CF1AF0080EE126D4
:10477000000E1A5C08E1000E195C05E1000E185CE1
:1047800002E10A0E175C06E30CC01BF0C60E1B26E6
:104790001B501726FF0E062607220922300E172669
:1047A00017C0E5FF06C0E9FF07C0F3FF095031EC71
:1047B00000F01650E56E1550E56E1450E56E13507E
:1047C000E56E1250E56E1150E56E1050E56E0F501B
:1047D000E56EFBEC2CF00F6EF3CF10F0F4CF11F080
:1047E000E9CF12F0080EE126A0D706C003F007C0FB
:1047F00004F009C005F00D5021E00A5012E00BA2B0
:1048000010D02D0EE56E0250E56E0150E56E0050A1
:10481000E56EA1EC2FF0040EE126010E0E6E0A06E5
:104820000DD0FF0E0326042205222D0EE56E03C0D7
:10483000E9FF04C0F3FF055031EC00F00B50E56ECA
:104840000A50E56E0550E56E0450E56E0350E56EC6
:104850000250E56E0150E56E0050E56E49EC26F021
:10486000006E080EE1260E5000260050E4CF1BF02B
:10487000E4CF1AF0E4CF19F0E4CF18F0E4CF17F04A
:10488000E4CF16F0E4CF15F0E4CF14F0E4CF13F04A
:10489000E4CF12F0E4CF11F0E4CF10F0E4CF0FF04A
:1048A000E4CF0EF0E4CF0DF0E4CF0CF0E4CF0BF04A
:1048B000E4CF0AF0E4CF09F0E4CF08F0E4CF07F04A
:1048C000E4CF06F0E4CF05F0E4CF04F0E4CF03F04A
:1048D000E4CF02F0E4CF01F0E4CF00F0E4CFD9FF61
:1048E0001200D9CFE5FFE1CFD9FF00C0E5FF01C03D
:1048F000E5FF02C0E5FF03C0E5FF04C0E5FF05C01A
:10490000E5FF06C0E5FF07C0E5FF08C0E5FF020EB2
:10491000DBCF00F0030EDBCF01F0040EDBCF02F0A3
:10492000050EDBCF03F0060EDBCF04F0070EDBCF66
:1049300005F000500110021006E000C046F301C06F
:1049400047F302C048F3030146514711481104E1FF
:10495000F46AF36AE86AA8D046C300F047C301F0DE
:1049600048C302F000C0E9FF01C0F3FF025029EC88
:1049700000F0006E005028E046C300F047C301F08D
:1049800048C302F000C0E9FF01C0F3FF025029EC68
:1049900000F0E56E0550E56E0450E56E0350E56EDF
:1049A0009EEC33F0006EF3CF01F0F4CF02F0040E72
:1049B000E12600500110021007E00301462BCCE372
:1049C000473F01D0482BC8D746C300F047C301F08A
:1049D00048C302F046C306F047C307F048C308F0D7
:1049E00006C0E9FF07C0F3FF085029EC00F0066E8F
:1049F0000650D8B442D046C306F047C307F048C3B8
:104A000008F006C0E9FF07C0F3FF085029EC00F0EA
:104A1000E56E0550E56E0450E56E0350E56E9EECC4
:104A200033F0066EF3CF07F0F4CF08F0040EE12662
:104A30000650071008101AE046C306F047C307F0F7
:104A400048C308F0E56A06C0E9FF07C0F3FF085055
:104A500031EC00F00301462B03E3473F01D0482B24
:104A600002C0F4FF01C0F3FF00501ED00301462B2B
:104A7000B1E3473F01D0482BADD70301466B476BED
:104A8000486B00C0E9FF01C0F3FF025029EC00F0C1
:104A9000036E035006E002C0F4FF01C0F3FF0050B4
:104AA00003D0F46AF36AE86AE4CF08F0E4CF07F0D1
:104AB000E4CF06F0E4CF05F0E4CF04F0E4CF03F058
:104AC000E4CF02F0E4CF01F0E4CF00F0E4CFD9FF6F
:104AD0001200D9CFE5FFE1CFD9FF00C0E5FF01C04B
:104AE000E5FF02C0E5FF03C0E5FF04C0E5FF05C028
:104AF000E5FF06C0E5FF07C0E5FF08C0E5FF020EC1
:104B0000DBCF00F0000E0301585D02E1400E575D5F
:104B100005E257C301F058C302F003D0400E016E06
:104B2000026A0044FE0B036E0328040DF450036E6A
:104B3000F3CF00F0000E0024046E040E0320056E77
:104B4000000E0024066E040E0320076E06C0E9FF67
:104B500007C0EAFFEFCF06F0FC0E061604C0E9FF1F
:104B600005C0EAFF06C0EFFF000E0024046E040E2D
:104B70000320056E000E0024066E040E0320076E4F
:104B800006C0E9FF07C0EAFFEFCF06F0030E0214EC
:104B9000061204C0E9FF05C0EAFF06C0EFFF000EE1
:104BA0000024046E040E0320056E044A052A0150F9
:104BB000066E04C0E9FF05C0EAFF06C0EFFF000E65
:104BC0000026040E0322020E0026D8B0032A400E4F
:104BD000046E050E056E00C0E9FF03C0EAFF04C0C5
:104BE000EEFF05C0EFFF01500301575F0250585B15
:104BF000050E03014D6F400E4C6F800E4E6F006A24
:104C000000C003F0046A0250045C02E10150035C3E
:104C10002BE24CC303F04DC304F04EC305F049C36F
:104C200006F04AC307F04BC308F006C0E9FF07C00F
:104C3000F3FF085029EC00F0066E0301492B03E353
:104C40004A3F01D04B2B06C0E5FF03C0E9FF04C07B
:104C5000F3FF055031EC00F003014C2B03E34D3F13
:104C600001D04E2B002ACCD7E4CF08F0E4CF07F0D8
:104C7000E4CF06F0E4CF05F0E4CF04F0E4CF03F096
:104C8000E4CF02F0E4CF01F0E4CF00F0E4CFD9FFAD
:104C90001200D9CFE5FFE1CFD9FF00C0E5FF01C089
:104CA000E5FF02C0E5FF03C0E5FF04C0E5FF05C066
:104CB000E5FF06C0E5FF07C0E5FF08C0E5FF09C046
:104CC000E5FF0AC0E5FF0BC0E5FF0CC0E5FF0DC026
:104CD000E5FF0EC0E5FF020EDBCF00F0030EDBCFD9
:104CE00001F0040EDBCF02F0050EDBCF03F0060E61
:104CF000DBCF04F0070EDBCF05F0080EDBCF06F0AC
:104D0000090EDBCF07F0086A200E096E065022E07C
:104D10000A6A03C00BF004C00CF005C00DF00BC014
:104D2000E9FF0CC0F3FF0D5029EC00F00E6E0E50A1
:104D300006E00A2A0B2AF3E30C4A0D2AF0D70650A4
:104D40000A5C02E3066A02D00A50065E07A202D09D
:104D5000300E096E07B019D0076A06C00AF00A5073
:104D600005E107C008F00AC006F00FD00950E56E53
:104D70000250E56E0150E56E0050E56EA1EC2FF09B
:104D8000040EE126072A0A06EAD708C007F003C086
:104D9000E9FF04C0F3FF055029EC00F0086E08504D
:104DA00012E00850E56E0250E56E0150E56E0050CD
:104DB000E56EA1EC2FF0040EE126072A032AE7E3B3
:104DC000044A052AE4D707C003F006C004F00450E3
:104DD0000FE00950E56E0250E56E0150E56E00509F
:104DE000E56EA1EC2FF0040EE126032A0406EFD7AE
:104DF000F36A0350E4CF0EF0E4CF0DF0E4CF0CF0F3
:104E0000E4CF0BF0E4CF0AF0E4CF09F0E4CF08F0F0
:104E1000E4CF07F0E4CF06F0E4CF05F0E4CF04F0F0
:104E2000E4CF03F0E4CF02F0E4CF01F0E4CF00F0F0
:104E3000E4CFD9FF1200D9CFE5FFE1CFD9FF00C001
:104E4000E5FF01C0E5FF02C0E5FF03C0E5FF04C0C8
:104E5000E5FF020EDBCF00F0030EDBCF01F0AA0E60
:104E60000024026E036A440E0322046A000E042228
:104E700002C0F6FF03C0F7FF04C0F8FF0900F5CF3A
:104E800002F0030E025CD8B09AD0FA6AFB6A0234D0
:104E9000FA36E834FA36FC0BA80FE56E4E0EFA220D
:104EA000000EFB22E450F96E5AEF27F087EF27F04F
:104EB000B4EF27F0015015E0960E0024026E036A4D
:104EC000440E0322046A000E042202C0F6FF03C04F
:104ED000F7FF04C0F8FF0900F5CF02F0025092126C
:104EE0006ED0960E0024026E036A440E0322046AFA
:104EF000000E042202C0F6FF03C0F7FF04C0F8FF53
:104F00000900F5CF02F00250FF08921658D0015068
:104F100015E0960E0024026E036A440E0322046A12
:104F2000000E042202C0F6FF03C0F7FF04C0F8FF22
:104F30000900F5CF02F00250931241D0960E0024E2
:104F4000026E036A440E0322046A000E042202C0A9
:104F5000F6FF03C0F7FF04C0F8FF0900F5CF02F029
:104F60000250FF0893162BD0015015E0960E002436
:104F7000016E026A440E0222036A000E032201C07F
:104F8000F6FF02C0F7FF03C0F8FF0900F5CF01F0FC
:104F90000150941214D0016A026A960E0026440E43
:104FA0000122000E022200C0F6FF01C0F7FF02C07E
:104FB000F8FF0900F5CF00F00050FF089416E4CF89
:104FC00004F0E4CF03F0E4CF02F0E4CF01F0E4CF4B
:104FD00000F0E4CFD9FF1200D9CFE5FFE1CFD9FF30
:104FE00000C0E5FF01C0E5FF02C0E5FF03C0E5FF2B
:104FF00004C0E5FF020EDBCF00F0030EDBCF01F0B3
:10500000AA0E0024026E036A440E0322046A000EF4
:10501000042202C0F6FF03C0F7FF04C0F8FF090036
:10502000F5CF02F0030E025CD8B09AD0FA6AFB6AA0
:105030000234FA36E834FA36FC0B4A0FE56E500EAD
:10504000FA22000EFB22E450F96E2BEF28F058EF05
:1050500028F085EF28F0015015E0960E0024026E2E
:10506000036A440E0322046A000E042202C0F6FF03
:1050700003C0F7FF04C0F8FF0900F5CF02F00250AB
:1050800089126ED0960E0024026E036A440E03222B
:10509000046A000E042202C0F6FF03C0F7FF04C03A
:1050A000F8FF0900F5CF02F00250FF08891658D02A
:1050B000015015E0960E0024026E036A440E03228E
:1050C000046A000E042202C0F6FF03C0F7FF04C00A
:1050D000F8FF0900F5CF02F002508A1241D0960E77
:1050E0000024026E036A440E0322046A000E0422A6
:1050F00002C0F6FF03C0F7FF04C0F8FF0900F5CFB8
:1051000002F00250FF088A162BD0015015E0960ECF
:105110000024016E026A440E0222036A000E03227A
:1051200001C0F6FF02C0F7FF03C0F8FF0900F5CF8A
:1051300001F001508B1214D0016A026A960E00260B
:10514000440E0122000E022200C0F6FF01C0F7FF4C
:1051500002C0F8FF0900F5CF00F00050FF088B16E1
:10516000E4CF04F0E4CF03F0E4CF02F0E4CF01F0A9
:10517000E4CF00F0E4CFD9FF1200D9CFE5FFE1CFB3
:10518000D9FF00C0E5FF01C0E5FF02C0E5FF03C095
:10519000E5FF04C0E5FF05C0E5FF06C0E5FF07C069
:1051A000E5FF08C0E5FF09C0E5FF020EDBCF00F018
:1051B000030EDBCF01F0040EDBCF02F0036A046ABA
:1051C000056A00C006F001C007F002C008F006C082
:1051D000E9FF07C0F3FF085029EC00F0096E095001
:1051E0001AE00950800F460F04E20950800F500F5B
:1051F00012E206C0E9FF07C0F3FF085029EC00F0F7
:10520000096E2D0A08E009502B0A05E0062A02E380
:10521000074A082ADCD706C000F007C001F008C022
:1052200002F006C0E9FF07C0F3FF085029EC00F0C8
:10523000066E076A2D0A01E1072A075002E0010EF7
:10524000056E075003E106502B0A04E1002A02E331
:10525000014A022A00C0E9FF01C0F3FF025029EC15
:1052600000F0066E065028E00650800F500F24E331
:105270000650800F460F20E20450E56E0350E56EA5
:10528000E56A0A0EE56E27EC00F0076EF3CF08F032
:10529000040EE126096A06BE0968D00E0626D8A0CB
:1052A000090606500724036E09500820046E002AE0
:1052B00002E3014A022ACED705500AE0041C016E1F
:1052C000031C006E004A012A01C0F3FF005003D006
:1052D00004C0F3FF0350E4CF09F0E4CF08F0E4CFBB
:1052E00007F0E4CF06F0E4CF05F0E4CF04F0E4CF1C
:1052F00003F0E4CF02F0E4CF01F0E4CF00F0E4CF1C
:10530000D9FF1200D9CFE5FFE1CFD9FF00C0E5FFFB
:1053100001C0E5FF02C0E5FF03C0E5FF04C0E5FFF3
:1053200005C0E5FF06C0E5FF07C0E5FF08C0E5FFD3
:1053300009C0E5FF020EDBCF00F00044FE0B040DB8
:10534000F450026EF3CF00F0000E0024016E040E44
:105350000220036E01C0E9FF03C0EAFFEFCF01F0B6
:10536000030E01160150056E046A000E0026040E9D
:105370000222004A022A00C0E9FF02C0EAFFEFCF82
:1053800000F0016A045000120550011200500301A0
:10539000572701505823050E03014A6F400E496FED
:1053A000800E4B6F026A036A0150035C02E10050F9
:1053B000025C2CE24CC304F04DC305F04EC306F072
:1053C00049C307F04AC308F04BC309F007C0E9FF1F
:1053D00008C0F3FF095029EC00F0076E0301492BC8
:1053E00003E34A3F01D04B2B07C0E5FF04C0E9FFB0
:1053F00005C0F3FF065031EC00F003014C2B03E332
:105400004D3F01D04E2B024A032ACED7E4CF09F0FC
:10541000E4CF08F0E4CF07F0E4CF06F0E4CF05F0E6
:10542000E4CF04F0E4CF03F0E4CF02F0E4CF01F0E6
:10543000E4CF00F0E4CFD9FF120000C0E5FF01C0C7
:10544000E5FF02C0E5FF03C0E5FF04C0E5FF05C0BE
:10545000E5FF1F0E05010015006E02C501F00050AA
:1054600012E10150010A01E076D0010E0301666FDE
:1054700005010151030A04E1010E0301686F6BD0BD
:105480000301686B68D00050020A01E064D00F0E7F
:1054900005010415006E800E0415026E0150D8A49B
:1054A0005AD00050D8B457D0010E0301666F040ED5
:1054B000036E000E016E800E046E0050080DF45055
:1054C000056EF3CF00F00050012403014C6F05502E
:1054D00003204D6FE86A05BEE86804204E6F025055
:1054E00005E0040E4C27000E4D234E23050101510B
:1054F000030A10E14CC300F04DC301F04EC303F0AA
:10550000840EE56E00C0E9FF01C0F3FF035031ECEB
:1055100000F021D00250010A0FE14CC300F04DC34E
:1055200001F04EC302F0E56A00C0E9FF01C0F3FFDD
:10553000025031EC00F00FD04CC300F04DC301F02D
:105540004EC302F0880EE56E00C0E9FF01C0F3FF14
:10555000025031EC00F0E4CF05F0E4CF04F0E4CFEA
:1055600003F0E4CF02F0E4CF01F0E4CF00F012004A
:10557000D9CFE5FFE1CFD9FF00C0E5FF01C0E5FFCE
:1055800002C0E5FF03C0E5FF020EDBCF00F0AA0E6C
:105590000024016E026A440E0222036A000E0322F6
:1055A00001C0F6FF02C0F7FF03C0F8FF0900F5CF06
:1055B00001F0030E015CD8B062D0FA6AFB6A0134D4
:1055C000FA36E834FA36FC0BD80FE56E550EFA229F
:1055D000000EFB22E450F96EF2EF2AF00CEF2BF0F4
:1055E00026EF2BF0960E0024016E026A440E022272
:1055F000036A000E032201C0F6FF02C0F7FF03C0DA
:10560000F8FF0900F5CF01F080500116015002E0CB
:10561000010E36D0E86A34D0960E0024016E026A7C
:10562000440E0222036A000E032201C0F6FF02C0EC
:10563000F7FF03C0F8FF0900F5CF01F08150011614
:10564000015002E0010E1CD0E86A1AD0016A026A19
:10565000960E0026440E0122000E022200C0F6FF24
:1056600001C0F7FF02C0F8FF0900F5CF00F082503B
:105670000016005002E0010E03D0E86A01D0E86A8B
:10568000E4CF03F0E4CF02F0E4CF01F0E4CF00F088
:10569000E4CFD9FF1200D9CFE5FFE1CFD9FF00C099
:1056A000E5FF01C0E5FF02C0E5FF03C0E5FF04C060
:1056B000E5FF05C0E5FF06C0E5FF07C0E5FF08C040
:1056C000E5FF09C0E5FF0AC0E5FF020EDBCF00F0F1
:1056D000030EDBCF01F0040EDBCF02F0050EDBCFB3
:1056E00003F0060EDBCF04F0070EDBCF05F0080E4B
:1056F000DBCF06F0090EDBCF07F0086A096A075016
:10570000800BE8440A6E0A501BE10450042605365B
:10571000063607360750035C08E10650025C05E1D7
:105720000550015C02E10450005C06E2D8900732AB
:1057300006320532043204D0092A09C008F0DFD746
:105740000750035C08E10650025C05E10550015C6E
:1057500002E10450005C08E30450005E0550015A69
:105760000650025A0750035AD890073206320532C3
:10577000043208C009F008060950E2E103C0E9FF5D
:1057800002C0F4FF01C0F3FF0050E4CF0AF0E4CF01
:1057900009F0E4CF08F0E4CF07F0E4CF06F0E4CF5F
:1057A00005F0E4CF04F0E4CF03F0E4CF02F0E4CF5F
:1057B00001F0E4CF00F0E4CFD9FF1200D9CFE5FF2C
:1057C000E1CFD9FF00C0E5FF01C0E5FF02C0E5FF62
:1057D00003C0E5FF04C0E5FF05C0E5FF06C0E5FF27
:1057E00007C0E5FF08C0E5FF09C0E5FF020EDBCFFB
:1057F00000F0030EDBCF01F0040EDBCF02F0036AF2
:1058000003016951050A02E0E86A50D00201FF5124
:1058100002E1E86A4BD0040118BF47D0400E195D81
:10582000D8A019C4E8FF046A04011951045C20E2FD
:1058300004500024056EE86A0120066EE86A022022
:10584000076E800E0424086E096A050E092208C03E
:10585000E9FF09C0EAFFEFCF08F008C0E5FF05C087
:10586000E9FF06C0F3FF075031EC00F0042ADCD753
:1058700004C003F0400E04011815186F006A18BD2B
:10588000002A0050D880E866D890006A00360050A0
:10589000010BE840E840F46E1851BF0BF410186F8C
:1058A000400E196F880E1811186F0350E4CF09F0DD
:1058B000E4CF08F0E4CF07F0E4CF06F0E4CF05F042
:1058C000E4CF04F0E4CF03F0E4CF02F0E4CF01F042
:1058D000E4CF00F0E4CFD9FF1200D9CFE5FFE1CF4C
:1058E000D9FF00C0E5FF01C0E5FF02C0E5FF03C02E
:1058F000E5FF04C0E5FF05C0E5FF06C0E5FF07C002
:10590000E5FF08C0E5FF09C0E5FF020EDBCF00F0B0
:10591000030EDBCF01F0040EDBCF02F0050EDBCF70
:1059200003F0046A03016951050A02E0E86A4CD0F9
:105930000201FF5102E1E86A47D004011CBF43D0D5
:10594000410E035C02E3400E036E056A0350055CE2
:105950001DE2C00E0524066E076A050E07220550DB
:105960000024086EE86A0120096EE86A022008C077
:10597000E9FF09C0F3FF29EC00F0086E06C0E9FF5B
:1059800007C0EAFF08C0EFFF052AE0D705C004F012
:10599000055004011D6F400E1C151C6F006A1CBDD4
:1059A000002A0050D880E866D890006A003600507F
:1059B000010BE840E840F46E1C51BF0BF4101C6F63
:1059C000880E1C111C6F0450E4CF09F0E4CF08F0DE
:1059D000E4CF07F0E4CF06F0E4CF05F0E4CF04F025
:1059E000E4CF03F0E4CF02F0E4CF01F0E4CF00F025
:1059F000E4CFD9FF1200D9CFE5FFE1CFD9FF00C036
:105A0000E5FF01C0E5FF02C0E5FF03C0E5FF04C0FC
:105A1000E5FF05C0E5FF06C0E5FF07C0E5FF08C0DC
:105A2000E5FF09C0E5FF0AC0E5FF0BC0E5FF0CC0BC
:105A3000E5FF0DC0E5FF020EDBCF00F0030EDBCF6C
:105A400001F0040EDBCF02F0050EDBCF03F0060EF3
:105A5000DBCF04F0070EDBCF05F0080EDBCF06F03E
:105A6000090EDBCF07F0086A096A0A6A0B6A200E82
:105A70000C6E0350800BE8440D6E0050002601367A
:105A8000023603360850082609360A360B360D5002
:105A9000D8A4088007500B5C08E106500A5C05E1B9
:105AA0000550095C02E10450085C09E30450085EFB
:105AB0000550095A06500A5A07500B5A00800C2EFE
:105AC000D8D703C0E9FF02C0F4FF01C0F3FF0050C4
:105AD000E4CF0DF0E4CF0CF0E4CF0BF0E4CF0AF00C
:105AE000E4CF09F0E4CF08F0E4CF07F0E4CF06F00C
:105AF000E4CF05F0E4CF04F0E4CF03F0E4CF02F00C
:105B0000E4CF01F0E4CF00F0E4CFD9FF120000C0F1
:105B1000E5FF01C0E5FF02C0E5FF03C0E5FF04C0EB
:105B2000E5FF05C0E5FF1F0E05010015006E05012C
:105B3000406B416B005013E1010E0301666F0301DE
:105B4000675104E0010E05014011406F03016851E7
:105B5000D8B44CD0020E05014011406F47D0005020
:105B6000010A04E1010E0301666F40D00050020AF1
:105B700001E03CD00F0E05010415006E800E0415E7
:105B8000016E010E0301666F040E036E000E026EBD
:105B9000800E046E0050080DF450056EF3CF00F037
:105BA0000050022403014C6F055003204D6FE86A3A
:105BB00005BEE86804204E6F015005E0040E4C2736
:105BC000000E4D234E234CC300F04DC301F04EC3D5
:105BD00002F000C0E9FF01C0F3FF025029EC00F021
:105BE000006E00A403D0010E0501406F0301665151
:105BF0000BE0050E03014A6F400E496F800E4B6F9C
:105C0000020E0301576F586BE4CF05F0E4CF04F0A8
:105C1000E4CF03F0E4CF02F0E4CF01F0E4CF00F0F2
:105C20001200D9CFE5FFE1CFD9FF00C0E5FF01C0E9
:105C3000E5FF02C0E5FF03C0E5FF04C0E5FF05C0C6
:105C4000E5FF06C0E5FF07C0E5FF08C0E5FF020E5F
:105C5000DBCF00F0030EDBCF01F0040EDBCF02F050
:105C6000050EDBCF03F0060EDBCF04F0070EDBCF13
:105C700005F0080EDBCF06F0090EDBCF07F006506B
:105C8000071003E1F36AE86A3FD0FF0E06260722F9
:105C9000065007101CE000C0E9FF01C0F3FF0250EE
:105CA00029EC00F0086E085012E003C0E9FF04C0C0
:105CB000F3FF055029EC00F0081809E1002A02E37F
:105CC000014A022A032A02E3044A052ADED700C059
:105CD000E9FF01C0F3FF025029EC00F0006E016AF9
:105CE00000BE016803C0E9FF04C0F3FF055029ECC2
:105CF00000F0036E026A03BE02680350005E0250A9
:105D0000015A01C0F3FF0050E4CF08F0E4CF07F0E0
:105D1000E4CF06F0E4CF05F0E4CF04F0E4CF03F0E5
:105D2000E4CF02F0E4CF01F0E4CF00F0E4CFD9FFFC
:105D30001200D9CFE5FFE1CFD9FF00C0E5FF01C0D8
:105D4000E5FF02C0E5FF03C0E5FF04C0E5FF05C0B5
:105D5000E5FF06C0E5FF07C0E5FF08C0E5FF09C095
:105D6000E5FF0AC0E5FF020EDBCF00F0030EDBCF3C
:105D700001F0040EDBCF02F0050EDBCF03F0060EC0
:105D8000DBCF04F0070EDBCF05F000C0E9FF01C058
:105D9000F3FF025029EC00F0066E076A06BE0768A2
:105DA00003C0E9FF04C0F3FF055029EC00F0086EC2
:105DB00008C009F00A6A08BE0A680950065E0A505F
:105DC000075A06C009F007C00AF0065007100BE199
:105DD000085009E0002A02E3014A022A032AD5E317
:105DE000044A052AD2D7D8800AAED89003E30968BE
:105DF0000A680AD00A50800F800F02E1010E095C88
:105E000003E3010E096E0A6A0AC0F3FF0950E4CFEA
:105E10000AF0E4CF09F0E4CF08F0E4CF07F0E4CFD4
:105E200006F0E4CF05F0E4CF04F0E4CF03F0E4CFD4
:105E300002F0E4CF01F0E4CF00F0E4CFD9FF12008C
:105E400000C0E5FF01C0E5FF02C0E5FF03C0E5FFBC
:105E500005010051800A01E06BD003C500F002C5C6
:105E600001F00050010A0FE1010E0301666F000E00
:105E700003014B6F430E4A6FE60E496F120E03018A
:105E8000576F586B55D00050020A17E1010E0301FD
:105E9000666F000E03014B6F430E4A6FF80E496F99
:105EA000FA0EF66E430EF76E000EF86E0900F5CF8F
:105EB00057F30900F5CF58F33BD00050030A32E105
:105EC000010E0301666F0150030DF450026EF3CF13
:105ED00001F0036A680E0126440E0222000E03221E
:105EE00001C0F6FF02C0F7FF03C0F8FF0900F5CFBD
:105EF00049F30900F5CF4AF30900F5CF4BF349C345
:105F000001F04AC302F04BC303F001C0E9FF02C035
:105F1000F3FF035029EC00F0016E01C057F30301B9
:105F2000586B06D00050060A03E1010E0301666FAC
:105F3000E4CF03F0E4CF02F0E4CF01F0E4CF00F0CF
:105F40001200D9CFE5FFE1CFD9FF00C0E5FF01C0C6
:105F5000E5FF02C0E5FF03C0E5FF04C0E5FF05C0A3
:105F6000E5FF06C0E5FF020EDBCF00F0030EDBCF3E
:105F700001F0040EDBCF02F0050EDBCF03F0005082
:105F80000110021033E000C0E9FF01C0F3FF02502E
:105F90002DEC00F0046EF3CF05F0F4CF06F003C053
:105FA000E5FF04C0E9FF05C0F3FF065031EC00F047
:105FB00000C0E9FF01C0F3FF02502DEC00F0046EB9
:105FC000F3CF05F0F4CF06F0042A02E3054A062ACF
:105FD00004C0E5FF05C0F4FF06C0F6FF00C0E9FFFE
:105FE00001C0F3FF025035EC00F016D00350E56E0F
:105FF000F2CFE5FFF29E0500160EFD6E600EFE6EFE
:10600000000EFF6EE4BEF28E45C3FBFF44C3FAFFF1
:1060100003014351F96EE652E4CF06F0E4CF05F0F8
:10602000E4CF04F0E4CF03F0E4CF02F0E4CF01F0DA
:10603000E4CF00F0E4CFD9FF120000C0E5FF01C5B6
:1060400000F005010051600BD8A461D00050050A92
:1060500009E1010E0301666F040E0301696F02C5B9
:1060600061F355D00050060A03E120EC2FF04FD029
:106070000050090A12E1010E0301666F02C56AF3BE
:1060800003016A5104E1040E0301696F40D0050E5B
:106090000301696FD9EC35F03AD00050080A0FE1DE
:1060A000010E0301666F030E03014A6F6A0E496F0A
:1060B000800E4B6F010E0301576F586B28D00050B4
:1060C00003E187EC2DF023D00050010A03E00050DB
:1060D000030A03E11DEC2AF01AD000500A0A11E16C
:1060E000010E0301666F0501406B050E03014A6F47
:1060F000400E496F800E4B6F010E0301576F586BB6
:1061000006D000500B0A03E1010E0301666FE4CFD5
:1061100000F0120000C0E5FF04010451006E009E73
:106120000050046F0051006E009E0050006F03018C
:106130006B6B0301666B0301626B0301576B586B5A
:106140001DEC30F01F0E05010015010A02E1BEEC46
:1061500031F0030166510BE1400E0401016F000EA6
:10616000026F050E036F840E006F046F38D00501B7
:1061700000AF26D0030158510501075D04E103017A
:1061800057510501065D04E206C557F307C558F3EC
:10619000000EE56A69EC25F0E652020E03016B6F12
:1061A000400E0401016F000E026F050E036F800E9A
:1061B000006F400E066F050E076FC80E046F0FD0FC
:1061C000010E03016B6F0401056BC80E046F400ED6
:1061D000016F400E026F050E036FC80E006F6D98C1
:1061E000E4CF00F01200D9CFE5FFE1CFD9FF00C026
:1061F000E5FF01C0E5FF02C0E5FF03C0E5FF04C005
:10620000E5FF05C0E5FF06C0E5FF07C0E5FF08C0E4
:10621000E5FF09C0E5FF020EDBCF00F0030EDBCF88
:1062200001F0040EDBCF02F0050EDBCF03F0060E0B
:10623000DBCF04F0070EDBCF05F000C006F001C095
:1062400007F002C008F003C0E9FF04C0F3FF0550E7
:1062500029EC00F0096E032A02E3044A052A09C06A
:10626000E5FF06C0E9FF07C0F3FF085031EC00F07E
:10627000062A02E3074A082A0950E5E102C0F4FFB2
:1062800001C0F3FF0050E4CF09F0E4CF08F0E4CF01
:1062900007F0E4CF06F0E4CF05F0E4CF04F0E4CF5C
:1062A00003F0E4CF02F0E4CF01F0E4CF00F0E4CF5C
:1062B000D9FF1200D9CFE5FFE1CFD9FF00C0E5FF3C
:1062C00001C0E5FF02C0E5FF020ED924006E000EFA
:1062D000DA20016E800E026E030E0026000E0122EF
:1062E000022203C0E5FF04C0E5FF05C0E5FF020E82
:1062F000DBCF03F0030EDBCF04F0040EDBCF05F0A1
:10630000E4CF05F0E4CF04F0E4CF03F00250E56EF3
:106310000150E56E0050E56E03C0E5FF04C0E5FFE7
:1063200005C0E5FF020EDBCF03F0030EDBCF04F068
:10633000040EDBCF05F00550E56E0450E56E03500A
:10634000E56EE4CF05F0E4CF04F0E4CF03F0BFEC5A
:1063500034F0060EE126000EE56E440EE56E8E0E5C
:10636000E56EBFEC34F0030EE126E4CF02F0E4CF9B
:1063700001F0E4CF00F0E4CFD9FF120000C0E5FF48
:10638000600E05010015200A01E049D001C500F0AA
:10639000005001E144D00050010A01E140D000501A
:1063A000200A07E00050210A13E00050220A1FE0F3
:1063B00036D0030E03014A6F3C0E496F800E4B6FBF
:1063C000070E0301576F586B010E0301666F27D04C
:1063D000030E03014A6F3C0E496F800E4B6F070E90
:1063E0000301576F586B010E0301666F18D005014A
:1063F0000251030A04E1010E0201FF6F02D0020103
:10640000FF6B030E03014A6F340E496F800E4B6F12
:10641000080E0301576F586B010E0301666FE4CF3E
:1064200000F01200D9CFE5FFE1CFD9FF00C0E5FFB2
:1064300001C0E5FF02C0E5FF03C0E5FF04C0E5FFC2
:1064400005C0E5FF020EDBCF4FF3030EDBCF50F3A9
:10645000040EDBCF51F3050EDBCF00F0060EDBCFD1
:1064600001F0070EDBCF02F0080EDBCF03F0090EC0
:10647000DBCF04F00A0EDBCF05F00550E56E0450CB
:10648000E56E0350E56E0250E56E0150E56E00507A
:10649000E56E800EE56E030EE56E4F0EE56E7AEC4E
:1064A00018F0006E090EE1260050E4CF05F0E4CFAD
:1064B00004F0E4CF03F0E4CF02F0E4CF01F0E4CF46
:1064C00000F0E4CFD9FF120000C0E5FF6CB422D089
:1064D0003C0E04010015006E0040E8403F0B0D0A21
:1064E00003E18AEC30F03ED003016B51010A0FE169
:1064F000000EE56A82EC29F0E652040100AD03D0FB
:10650000880E006F2FD0C80E0401006F2BD047EC0F
:1065100038F028D0006A6CB4002A0050010A22E149
:106520006E500BE103016951040A07E102C56EFFD9
:106530006E5003E1030E0301696F03016B51020A00
:106540000FE1000EE56A69EC25F0E652040104ADA6
:1065500003D0880E046F06D0C80E0401046F02D069
:1065600047EC38F0E4CF00F01200D9CFE5FFE1CFDF
:10657000D9FF00C0E5FF01C0E5FF02C0E5FF03C091
:10658000E5FF04C0E5FF05C0E5FF020EDBCF43F3E6
:10659000030EDBCF44F3040EDBCF45F3050EDBCF58
:1065A00000F0060EDBCF01F0070EDBCF02F0080E85
:1065B000DBCF03F0090EDBCF04F00A0EDBCF05F0D2
:1065C0000550E56E0450E56E0350E56E0250E56E31
:1065D0000150E56E0050E56E000EE56AE56AE56A79
:1065E0007AEC18F0006E090EE1260050E4CF05F0B9
:1065F000E4CF04F0E4CF03F0E4CF02F0E4CF01F005
:10660000E4CF00F0E4CFD9FF1200D9CFE5FFE1CF0E
:10661000D9FF00C0E5FF01C0E5FF02C0E5FF03C0F0
:10662000E5FF020EDBCF00F00D0E005C0AE3120E58
:10663000005C07E2F30E0024016E040DF3CFC2FFED
:1066400007D0060E005C04E20050040DF3CFC2FF39
:10665000C280090E006E016A0000FF0E00260122B2
:1066600000500110F9E1C282C2B2FED7C4CF00F0DF
:10667000016A0050036E026AC3CF00F0016A005045
:10668000022601500322C29003C0F3FF0250E4CF60
:1066900003F0E4CF02F0E4CF01F0E4CF00F0E4CF68
:1066A000D9FF1200F00EF66E700EF76E000EF86E47
:1066B0000900F550056E0900F550066E055002E11F
:1066C00006503BE00900F550006E0900F550016EE0
:1066D0000900F550026E09000900F550E96E090045
:1066E000F550EA6E090009000900F550036E090033
:1066F000F550046E09000900F6CF07F0F7CF08F057
:10670000F8CF09F000C0F6FF01C0F7FF02C0F8FFA4
:10671000035002E1045007E00900F550EE6E030655
:10672000F8E20406F9D707C0F6FF08C0F7FF09C072
:10673000F8FF0506C4E20606C5D71200D9CFE5FF6B
:10674000E1CFD9FF00C0E5FF01C0E5FF02C0E5FFD2
:1067500003C0E5FF04C0E5FF020EDBCF00F0030E2F
:10676000DBCF01F0040EDBCF02F0050EDBCF03F030
:1067700000C0E9FF01C0F3FF025029EC00F0046EF5
:10678000045008E00450031805E0002A02E3014A1F
:10679000022AEED700C0E9FF01C0F3FF025029EC46
:1067A00000F0031806E102C0F4FF01C0F3FF00503F
:1067B00003D0F46AF36AE86AE4CF04F0E4CF03F0AC
:1067C000E4CF02F0E4CF01F0E4CF00F0E4CFD9FF52
:1067D0001200D9CFE5FFE1CFD9FF00C0E5FF01C02E
:1067E000E5FF02C0E5FF03C0E5FF04C0E5FF050EBD
:1067F000D924006E000EDA20016E800E026E030EA8
:106800000026000E01220222020ED924036E000E81
:10681000DA20046E0250E56E0150E56E0050E56E20
:10682000070EDBCFE5FF060EDBCFE5FF050EDBCF66
:10683000E5FF800EE56E0450E56E0350E56E7AECE0
:1068400018F0006E090EE1260050E4CF04F0E4CF0A
:1068500003F0E4CF02F0E4CF01F0E4CF00F0E4CFA6
:10686000D9FF120000C0E5FF01C0E5FF02C0E5FF4F
:1068700003C0E5FF006A05EC38F0016E01C002F0CC
:10688000E56A0250E56E000EE56E440EE56E920E6E
:10689000E56EBFEC34F0050EE12600C002F0002AE0
:1068A000036A000E0226020E032202C0E9FF03C0A3
:1068B000EAFF01C0EFFF01500D0ADDE1016A000EA1
:1068C0000026020E012200C0E9FF01C0EAFFEF6AC4
:1068D000016E800E026E02C0F4FF01C0F3FF000ED5
:1068E000E4CF03F0E4CF02F0E4CF01F0E4CF00F016
:1068F000120000C0E5FF01C0E5FF02C0E5FF03C0D4
:10690000E5FF04C0E5FF010E006E016A00500110B2
:106910001BE0800EE56E020EE56ED00EE56EDEEC3D
:106920002BF0026E030EE126D00E0224036E046AE1
:10693000020E042203C0E9FF04C0EAFFEF6A02501E
:10694000E5E0006A016AE2D7800EE56E020EE56EB0
:10695000D00EE56E800EE56E020EE56EE50EE56E7C
:10696000F3EC30F0060EE126E4CF04F0E4CF03F0C0
:10697000E4CF02F0E4CF01F0E4CF00F01200D9CF71
:10698000E5FFE1CFD9FF00C0E5FF01C0E5FF02C090
:10699000E5FF020ED924006E000EDA20016E800E93
:1069A000026E030E0026000E012202220250E56E46
:1069B0000150E56E0050E56E040EDBCFE5FF030EDF
:1069C000DBCFE5FF020EDBCFE5FF800EE56E020EAA
:1069D000E56E500EE56E12EC32F0006E090EE12607
:1069E0000050E56E800EE56E020EE56E500EE56E0F
:1069F0006DEC2CF0040EE126E4CF02F0E4CF01F0C0
:106A0000E4CF00F0E4CFD9FF1200D9CFE5FFE1CF0A
:106A1000D9FF00C0E5FF01C0E5FF03C0E5FF04C0EA
:106A2000E5FF05C0E5FF020EDBCF00F00050E56E8C
:106A300039EC38F0016EE652002A0050E56E39EC70
:106A400038F0006EE6520150046E036A056A005089
:106A500003120550041204C0F3FF0350E4CF05F005
:106A6000E4CF04F0E4CF03F0E4CF01F0E4CF00F092
:106A7000E4CFD9FF120000C0E5FF030169512EE009
:106A800068A403D069B488EC38F0006A6DB2002ABB
:106A90000050010A23E068A003D069B05DEC37F034
:106AA00068A803D069B819EC38F068AC03D069BCA9
:106AB0008CEC38F068AA03D069BA2AEC38F068A2E6
:106AC00002D069B26892030E0301695D07E368A60C
:106AD00005D069A603D064EC32F06896E4CF00F0EC
:106AE0001200D9CFE5FFE1CFD9FF00C0E5FF01C01B
:106AF000E5FF02C0E5FF03C0E5FF020EDBCF00F0BB
:106B0000030EDBCF01F0040EDBCF02F0050EDBCF6E
:106B100003F00350E56E0250E56E0150E56E005043
:106B2000E56E000EE56E440EE56E7A0EE56EBFEC86
:106B300034F0070EE126E4CF03F0E4CF02F0E4CF17
:106B400001F0E4CF00F0E4CFD9FF1200F29EF29CF6
:106B50006D6A6F6A706A716A726A736A746A756A5A
:106B6000766A776A786A796A7A6A7B6A7C6A7D6A09
:106B70007E6A7F6A070EE56ED00EE56E36EC36F063
:106B8000E652E652140E6F6E0301696B0301686BE7
:106B900003016A6B03016951050A05E0EFEC37F068
:106BA0003BEC35F0F7D7A19AA08AA28AF28EF28C3C
:106BB000120003013C6BC20E3D6F010E3E6F3F6B36
:106BC000406B416B080E426F0301346B356B366BC3
:106BD000376B386B396B3A6B3B6B1A0E726E1E0E4D
:106BE000736E000E0401166F030E176F400E146FC4
:106BF000196F800E1A6F050E1B6F880E186FC00E6E
:106C00001E6F050E1F6F400E1C6F050E0301696F8E
:106C10001200D9CFE5FFE1CFD9FF00C0E5FF01C0E9
:106C2000E5FF02C0E5FF020EDBCF00F0030EDBCF75
:106C300001F0040EDBCF02F00250E56E0050E56E6D
:106C4000A0EC37F0E652E652002A0150E56E005003
:106C5000E56EA0EC37F0E652E652E4CF02F0E4CF66
:106C600001F0E4CF00F0E4CFD9FF1200D9CFE5FF67
:106C7000E1CFD9FF00C0E5FF01C0E5FF02C0E5FF9D
:106C800003C0E5FF020EDBCF00F0030EDBCF01F007
:106C9000026A036A0150035C02E10050025C06E2F2
:106CA0000C0E39EC00F0024A032AF4D7E4CF03F0CB
:106CB000E4CF02F0E4CF01F0E4CF00F0E4CFD9FF5D
:106CC0001200D9CFE5FFE1CFD9FF00C0E5FF01C039
:106CD000E5FF02C0E5FF03C0E5FF020EDBCF00F0D9
:106CE000030EDBCF01F0026A036A0150035C02E18C
:106CF0000050025C03E2024A032AF7D7E4CF03F014
:106D0000E4CF02F0E4CF01F0E4CF00F0E4CFD9FF0C
:106D10001200D9CFE5FFE1CFD9FF00C0E5FF01C0E8
:106D2000E5FF020EDBCF00F0030EDBCF01F00050D9
:106D30000B0A08E000500C0A09E10C0EBD6E01C000
:106D4000BEFF04D00C0EBA6E01C0BBFF9E92E4CF12
:106D500001F0E4CF00F0E4CFD9FF1200D9CFE5FF76
:106D6000E1CFD9FF00C0E5FF01C0E5FF020EDBCF98
:106D700000F0030EDBCF01F00150E56E0050E56E30
:106D8000000EE56E440EE56E8A0EE56EBFEC34F043
:106D9000050EE126E4CF01F0E4CF00F0E4CFD9FF07
:106DA0001200D9CFE5FFE1CFD9FF00C0E5FF01C058
:106DB000E5FF020EDBCF00F0030EDBCF01F0015048
:106DC000E56E0050E56E000EE56E440EE56E860E33
:106DD000E56EBFEC34F0050EE126E4CF01F0E4CF20
:106DE00000F0E4CFD9FF1200D9CFE5FFE1CFD9FF02
:106DF00000C0E5FF01C0E5FF020EDBCF00F0030E8F
:106E0000DBCF01F00150E56E0050E56E000EE56E3F
:106E1000440EE56E7E0EE56EBFEC34F0050EE12605
:106E2000E4CF01F0E4CF00F0E4CFD9FF1200D9CFD6
:106E3000E5FFE1CFD9FF00C0E5FF01C0E5FF020E8D
:106E4000DBCF00F0030EDBCF01F00150E56E005008
:106E5000E56E000EE56E440EE56E820EE56EBFEC4B
:106E600034F0050EE126E4CF01F0E4CF00F0E4CFEA
:106E7000D9FF1200D9CFE5FFE1CFD9FF00C0E5FF70
:106E800001C0E5FF020EDBCF00F0030EDBCF01F007
:106E90000150E56E0050E56E000EE56E440EE56EA5
:106EA0007E0EE56EBFEC34F0050EE126E4CF01F076
:106EB000E4CF00F0E4CFD9FF120000C0E5FF6A6A1A
:106EC000686A9F0E6B6E7B0E696E6E6A160E706E30
:106ED000006A68B6002A0050010A02E16896F8D7F5
:106EE0006D9847EC38F00301686B0301676B030191
:106EF0006A6B030E0301696FE4CF00F01200D9CF73
:106F0000E5FFE1CFD9FF00C0E5FF01C0E5FF020EBC
:106F1000DBCF00F00050E56EB8EC2AF0016EE652CF
:106F200001700150E56E0050E56EECEC27F0E65282
:106F3000E652E4CF01F0E4CF00F0E4CFD9FF120035
:106F4000D9CFE5FFE1CFD9FF020EDBCFA9FF030EBA
:106F5000DBCFA8FFA69EA69CA684F29E550EA76E28
:106F6000AA0EA76EA682A6A202D00000FCD7E86AED
:106F7000A6B6E82AA694F28EE4CFD9FF1200D35029
:106F8000030B800F7D0F02E3D3A4FED7D08EF29EB9
:106F9000F29C69EC38F07FEC38F0A6EC35F071EC3F
:106FA00038F084EC38F093EC38F04BEC10F0FDD76F
:106FB0001200D9CFE5FFE1CFD9FF020EDBCF6CF392
:106FC000010EE56E800EE56E030EE56E6C0EE56E4D
:106FD0006DEC2CF0040EE126E4CFD9FF12006DB663
:106FE00006D06D6A696A6D86010E0301696F03013F
:106FF0006951010A09E16DBA07D0686A696A698056
:107000006988020E0301696F120000C0E5FF800E5F
:10701000E56E020EE56E900EE56EDEEC2BF0006E76
:10702000030EE1260050F3E002019051E4CF00F09E
:107030001200D9CFE5FFE1CFD9FF698468986D824E
:10704000A19AF290A08AF2860300A09AF296E4CF69
:10705000D9FF120000C0E5FF006A70B0002A00509E
:10706000010A03E147EC38F07090689AE4CF00F031
:107070001200D9CFE5FFE1CFD9FF020EDBCFA9FF88
:10708000A69EA69CA680A850E4CFD9FF12000301BB
:107090006B6B400E0401016F000E026F050E036F53
:1070A000880E006F046B120011EEFFF021EEFFF06E
:1070B000F86AA68EA69C52EC33F0BFEC37F0FFD7EF
:1070C000A1AA06D0A19A3BEC35F0689C68906A6A48
:1070D0001200896A8A6A400E8B6E926A936A946A79
:1070E00012002F0E92120A0EC16EBD0EC06E12005B
:1070F00001001C710000FE020000020000000F0EE3
:10710000C16E070EB46E1200CB68040ECA6E120078
:107110006D92699468941200689C1200000012003D
:0871200012001200120012001F
:00000001FF
