:020000040000FA
:06000000F86AF76A03D064
:0800080004EF04F00F0EC16EBD
:06001000929889883FD0A0
:040018000CEF04F0F5
:02001C000000E2
:0800380012010002000000406B
:10004000D804AAFE000301020001090222000101F6
:1000500000803209040000010300000009210101B1
:10006000000122170007058103400001050C09006B
:10007000A1020900954075088100090095407508A6
:100080009100C0040309040C035200650067006975
:03009000007300FA
:0C00940092988988310ECD6E9D8029D98C
:1000A00015D8D4D855D8FF2F06D0772F04D0770E87
:1000B000776F100E891A9EA0F3D79E90292FF0D744
:1000C000CD6A6D6A899800EF04F0FF0068A405D03E
:1000D00069A403D06D92699468946DB2120068A00F
:1000E00003D069A001D012D968A809D069A807D0A7
:1000F000698468986D82A19AA08A0300A09A68A278
:1001000003D069A201D0689C68AA07D069AA05D06B
:1001100070A002D00BD97090689A68A203D069A22F
:1001200001D06892020E8A65120068A604D069A602
:1001300002D00DD9689612001A0E716E0401400E9D
:100140000E6F050E0F6F400E0C6F0001426B120018
:1001500042510DE024EE0CF0DEBE09D095D8400EE1
:10016000DD6E400EDF16400EDF1A880EDF12120021
:1001700097511F0B0108D8A412009B510008D8A466
:1001800012009851060819E19A51DF0F05E0E84E78
:1001900009D0E84E0DD011D05C0E916F000E926F19
:1001A000090E07D06C0E916F000E926F170E01D0E2
:1001B00021D08E6F968195811DD09751600B2008BC
:1001C00001E012009851E84E0BD0E84E13D0E84EF3
:1001D00011D0FA0F07E0E84E0DD0E84E0BD00AD050
:1001E000000E05D0020E8F6F000E906F02D08E6F42
:1001F00095919681120067D8A68871D8400EF62690
:10020000000EF722072FF8D7120059D800EE08F099
:100210000A00EECFF5FF0F00832B83BB60D8822F3F
:10022000F8D783675CD812003F0EF86EFF0EF76EAA
:10023000FE0EF66E020E826F476F00EE48F0090068
:10024000F5CFEEFF822FFBD7F86A1200025110E0C3
:10025000426F03C043F0026BE84ED7D7E84ECBD7CE
:10026000E84E07D0E84E0CD0E84EDED7FF0E426FC6
:100270001200030E446F000E456F000E466F120011
:100280006D9600EF04F0FF00E1CF84F0E2CF85F03F
:10029000D9CF86F0DACF87F000EE42F015EE40F0CD
:1002A000400EEFCFE6FFEE6AE82EFBD784C0E1FFF9
:1002B00085C0E2FF86C0D9FF87C0DAFF1200075170
:1002C0003C0B826F476F0651F86E466F0551F76E13
:1002D000456F0451F66E446F1F0B836F1200A68E9C
:1002E000A69CA684550EA76EAA0EA76EA682836B47
:1002F0001200140E6F6E696A080E6D6E6DBAFED72D
:10030000686A110E696E020E8A6F1200686A7B0EAF
:10031000696E6E6A160E706E68A602D06896FCD77B
:100320006D9896EC01F0030E8A6F1200000E8B6F31
:1003300024EE00F0400EDC6E100EDC6E040EDC6E5F
:1003400083E9880EDF6E84E8000EDF6E12006C50C9
:10035000780B1AE110EE97F024EE10F0080EDECFC5
:10036000E6FFE82EFCD724EE00F0000E6C6208D009
:10037000DF503C0B340802E167D8120006D81200A7
:10038000040E6C6212000CD81200020E8B6306D0B1
:1003900021D8C80EDFAC880EDF6E1200C7DF120056
:1003A00024EE04F0DFBEFED7040E8A6308D0995114
:1003B0006E6EFF0BD8A4050ED8B4030E8A6F010E23
:1003C0008B6306D019D8C80EDFAC880E046F1200FC
:1003D000ADDF1200DC509F6F8E2714EE50F090C0FE
:1003E000EAFF8FC0E9FFE6CFEEFF9F2FFCD7E9CFF2
:1003F0008FF0EACF90F01200400E8E6101D08E5146
:10040000A06FDF92DF90DC6E8E5F04EE50F095B14E
:100410000FD0A05118E092C0E2FF91C0E1FFE6CFFB
:10042000EEFFA02FFCD7E1CF91F0E2CF92F00BD0FE
:10043000F86AF76A9151F66E0900F5CFEEFFA02F2A
:10044000FBD7F6CF91F01200000E8B6F966B8E6B80
:100450009751600BD8B404D02008D8B477D078D0A6
:10046000985117E0E84E22D0E806E84E1FD0E80683
:10047000E84E1DD0E84E1FD0E84E42D0E84E41D0A5
:10048000E84E48D0E84E53D0E84E5AD0E84E5CD003
:100490005FD004EE50F0EE6AEE6A500E916F040EDB
:1004A000926F000E020E8E6F96814FD04ED09681C5
:1004B000040E8A6F4AD096819A51E84E0AD0E84ECF
:1004C0000CD0E84E0ED0E84E16D0E84E15D0966B04
:1004D0003CD0380E916F120E10D04A0E916F220E42
:1004E0000CD0995104E1830E916F040E03D0870E56
:1004F000916F160E02D0EBD7EAD78E6F958125D07B
:1005000024D096818C0E916F000E926F9591010E02
:100510008E6F1BD09681716A99518C6FFF0B04E02E
:10052000060E8A6F09DE02D0050E8A6F0ED0968104
:100530008D0E916F000E926F9591010E8E6F05D00A
:10054000968199C08DF001D000D003D011DE04D087
:1005500035D096B101D0FAD76D9896B101D02ED092
:1005600097AF1CD09D518E618E6F24EE04F044DF56
:10057000010E8B6F24EE03F0040EDD6E100EDD6EA7
:10058000400EDD6E800EDD6E24EE07F0040EDD6E93
:10059000500EDD6E81E9C80EDD6E0FD0020E8B6F3E
:1005A00024EE05F0DD6AC80EDD6E040EDD6E500E21
:1005B000DD6E400EDD6EC80EDD6E120024EE03F01F
:1005C000040EDD6E100EDD6E400EDD6E840EDF6EED
:0805D00084E8DF6E6D98120053
:02080000FFD720
:020000040030CA
:0100000024DB
:010001004EB0
:0100020038C5
:010003001EDE
:010005008377
:01000600C138
:0100080008EF
:010009008076
:01000A000FE6
:01000B008074
:01000C000FE4
:01000D0000F2
:00000001FF
