:020000040000FA
:0600000010EF05F01200F4
:0400080004EF06F00B
:080018000CEF06F000C0E5FF4B
:1000200001C0E5FF02C0E5FF03C0E5FF04C0E5FF36
:1000300005C0E5FF06C0E5FF07C0E5FF08C0E5FF16
:1000400009C0E5FF0AC0E5FF0501CB51D8B453EF65
:1000500002F062A406D00F0136A503D06592369552
:100060006294006A65B2002A0050010A02E153EF6F
:1000700002F062A022D00F0136A11FD0636A626A2B
:100080009F0E0F01376F7F0E0F01366F0F01386B18
:10009000160E0F01266F006A62B6002A0050010A90
:1000A00002E16296F8D76598F8EC04F00501C86B98
:1000B0000501CC6B030E0501CB6F62A80AD00F01BE
:1000C00036A907D0368562986582A198F290A088FB
:1000D000F28662AC03D00F0136BD629C62AA0FD0DB
:1000E0000F0136AB0CD0006A0F0126B1002A005078
:1000F000010A04E1F8EC04F00F012691629A62A271
:1001000003D00F0136B36292030E0501CB5DD8A078
:1001100053EF02F062A653EF02F00F0136A753EF40
:1001200002F06438E8441F0B006E0050D8A4B3D12D
:1001300064B48FD13C0E0D010015016E0140E84002
:100140003F0B0D0A01E028D10D010451016E019E03
:100150000150046F0051016E019E0150006F0501B6
:10016000CA6B0501CD6B0501C66BC76B050140511C
:10017000600BD8A498D14151050A09E1010E05018F
:10018000CD6F040E0501CB6F42C5C9F5C0D0050186
:100190004151060A01E06BD005014051800A01E09F
:1001A000B6D005014351010A0FE1010E0501CD6FE3
:1001B000000E0501C56F090EC46F000EC36F120E4D
:1001C0000501C66FC76BA3D005014351020A17E1B1
:1001D000010E0501CD6F000E0501C56F090EC46F3C
:1001E000120EC36F140EF66E090EF76E000EF86E47
:1001F0000900F5CFC6F50900F5CFC7F588D0050190
:100200004351030A01E083D0010E0501CD6F0501C2
:100210004251030DF450026EF3CF01F0036A480E11
:100220000126090E0222000E032201C0F6FF02C0C1
:10023000F7FF03C0F8FF0900F5CFC3F50900F5CFBC
:10024000C4F50900F5CFC5F5C3C501F0C4C502F07A
:10025000C5C503F001C0E9FF02C0F3FF0350E7EC9E
:1002600004F0016E01C0C6F50501C76B50D0050151
:100270004151090A1DE1010E0501CD6F1E0E0F014E
:10028000276F400E0D010C6F096F800E0A6F050E6F
:100290000B6F800E086F42C5CCF50501CC5104E10F
:1002A000040E0501CB6F33D0050E0501CB6F2FD0A7
:1002B00005014151080A0FE1010E0501CD6F050E40
:1002C0000501C46FCC0EC36F800EC56F010E050112
:1002D000C66FC76B1CD0050141510A0A11E1010E1E
:1002E0000501CD6F0501006B050E0501C46F000E01
:1002F000C36F800EC56F010E0501C66FC76B07D0B7
:10030000050141510B0A03E1010E0501CD6F050105
:10031000CD510BE1400E0D01016F400E026F050E35
:10032000036F840E006F046F35D0050140AF23D0FA
:100330000501C7510501475D04E10501C6510501ED
:10034000465D04E246C5C6F547C5C7F593EC03F024
:10035000020E0501CA6F400E0D01016F400E026FC3
:10036000050E036F800E006F000E066F050E076FFF
:10037000C80E046F0FD0010E0501CA6F0D01056B89
:10038000C80E046F400E016F000E026F050E036F62
:10039000C80E006F659886D00501CA51010A01E0B8
:1003A00055D0030E0D010015026A046E036A01CDDB
:1003B00001F0035001120450021201500501C6273A
:1003C0000250C723050E0501C46F000EC36F800ED7
:1003D000C56F046A0250045C02E10150035C2CE228
:1003E000C0C505F0C1C506F0C2C507F0C3C508F019
:1003F000C4C509F0C5C50AF008C0E9FF09C0F3FF8C
:100400000A50E7EC04F0086E0501C32B03E3C43F78
:1004100001D0C52B08C0E5FF05C0E9FF06C0F3FF0A
:10042000075005EC05F00501C02B03E3C13F01D0E7
:10043000C22B034A042ACED70D0100AD03D0880E8B
:10044000006F30D0C80E0D01006F2CD0F8EC04F016
:1004500029D00F0138510CE10501CB51040A08E104
:1004600042C538FF0F01385103E1030E0501CB6F80
:100470000501CA51020A0CE193EC03F00D0104AD31
:1004800003D0880E046F0ED0C80E0D01046F0AD081
:10049000F8EC04F007D064B405D00050E56E6AECC7
:1004A00002F0E6526296E4CF0AF0E4CF09F0E4CF1E
:1004B00008F0E4CF07F0E4CF06F0E4CF05F0E4CF96
:1004C00004F0E4CF03F0E4CF02F0E4CF01F0E4CF96
:1004D00000F01200D9CFE5FFE1CFD9FF00C0E5FF62
:1004E00001C0E5FF02C0E5FF03C0E5FF04C0E5FF72
:1004F00005C0E5FF020EDBCF00F08B840044FE0B4D
:10050000016E0128006E040DF45000BE0408026E56
:10051000F3CF00F0000E0024036E0D0E0220046ED7
:10052000034A042A03C0E9FF04C0EAFF000EEF6E8D
:1005300084C5F8FF83C5F7FF82C5F6FF050180512A
:10054000FF0A03E1A9EC04F0A8D00501805113E1F2
:100550000E0E826F040E836F000E0024036E0D0ECC
:100560000220046E034A042A03C0E9FF04C0EAFF24
:10057000040EEF6E92D005018051010A27E1036A53
:1005800005018151035C0FE20900850E0324046E0E
:10059000056A050E052204C0E9FF05C0EAFFF5CF94
:1005A000EFFF032AEDD7000E0024036E0D0E02208C
:1005B000046E034A042A050E05018125056E03C059
:1005C000E9FF04C0EAFF05C0EFFF67D005018051D5
:1005D000020A01E03CD0A40EA66E036A0501815117
:1005E000035C26E203508225F66E850E0324046E1A
:1005F000056A050E052204C0E9FF05C0EAFFEFCF3A
:10060000F5FF0D000328046E056A850E0426050E0D
:10061000052204C0E9FF05C0EAFFEFCFF5FF0C009B
:10062000550EA76EAA0EA76EA682032A032AD6D756
:10063000000E0024036E0D0E0220046E034A042AED
:1006400003C0E9FF04C0EAFF010EEF6E26D00501EA
:100650008051030A22E1A40EA66E036A05018151AE
:10066000035C0DE2A688550EA76EAA0EA76EA682A1
:10067000A698040EF726000EF822032AEFD7000EE4
:100680000024036E0D0E0220046E034A042A03C0E8
:10069000E9FF04C0EAFF010EEF6E000E00260D0E0A
:1006A0000222004A022A00C0E9FF02C0EAFFEFCF9F
:1006B00000F0005009E00D010CAD03D0880E0C6F66
:1006C00003D0C80E0D010C6F0150040DF45001BE93
:1006D0000408006EF3CF01F0000E0124026E0D0E2F
:1006E0000020036E024A032A02C0E9FF03C0EAFFAA
:1006F000400EEF6E000E01260D0E002201C0E9FF34
:1007000000C0EAFF800EEF6EE4CF05F0E4CF04F006
:10071000E4CF03F0E4CF02F0E4CF01F0E4CF00F047
:10072000E4CFD9FF120000C0E5FF01C0E5FF02C021
:10073000E5FF03C0E5FF04C0E5FF05C0E5FF06C017
:10074000E5FF07C0E5FF08C0E5FF000E0501C75D36
:1007500002E1400EC65D05E2C6C500F0C7C501F066
:1007600003D0400E006E016A0D010451026EFC0EB2
:1007700002160250046F030E0114026E045102129D
:100780000250046F0050026E056F000E066F050EDA
:10079000076F00500501C65F0150C75B050E0501DC
:1007A000C16F000EC06F800EC26F026A02C003F0FC
:1007B000046A0150045C02E10050035C2BE2C0C5F6
:1007C00003F0C1C504F0C2C505F0C3C506F0C4C539
:1007D00007F0C5C508F006C0E9FF07C0F3FF0850E1
:1007E000E7EC04F0066E0501C32B03E3C43F01D020
:1007F000C52B06C0E5FF03C0E9FF04C0F3FF0550A9
:1008000005EC05F00501C02B03E3C13F01D0C22B6D
:10081000022ACCD7E4CF08F0E4CF07F0E4CF06F00B
:10082000E4CF05F0E4CF04F0E4CF03F0E4CF02F02E
:10083000E4CF01F0E4CF00F012009B8C580E006E64
:10084000020E016E00C002F001C003F0FF0E002690
:10085000012202500310F6E1FF0E0F01486F1F0E38
:100860000F01496FD0B204D0930ED01200EF06F002
:10087000D0BE45D0D08ECE6ACF6A310ECD6E949464
:100880008B84140E0F01396F800E006E050E016E01
:10089000026A036A00500D010E6F01500F6F0501CF
:1008A000CC6B0501CB6B006A016A026A036ACEEC6D
:1008B00004F00EEC00F00050FF0A08E10150FF0ABE
:1008C00005E102500F0A02E1035001E002D0A9EC59
:1008D00004F0002A04E3012A02E3024A032A050184
:1008E000CB51050AE4E10EEC00F0006A9EB0002A4C
:1008F0000050010AF8E19E90040E8B1AF4D7120002
:1009000012010002FFFFFF40D804AAFE14040102F6
:10091000000109022000010100C07D09040000025D
:10092000FFFFFF00070501024000000705810240AC
:100930000000040309040C03520042002B00410094
:10094000470006035000380032090036090042090A
:10095000000000C0E5FF01C0E5FF02C0E5FF03C0E5
:10096000E5FFCD6A65926596FF0E006E016E00C0D0
:1009700002F001C003F0FF0E002601220250031016
:10098000F6E1D09294848B94FF00E4CF03F0E4CF9F
:1009900002F0E4CF01F0E4CF00F0120065B607D01A
:1009A000656A0F01366B6586010E0501CB6F050187
:1009B000CB51010A0BE165BA09D0626A0F01366BAF
:1009C0000F0136813689020E0501CB6F1200E8AEA9
:1009D00004D0F3CFEAFFEE501200E8BC02EF00F0C3
:1009E000E9CFF6FFF3CFF7FFF86E0900F5501200DC
:1009F0000501CA6B400E0D01016F400E026F050E1E
:100A0000036F880E006F046B1200E8AE05D0F3CFC1
:100A1000EAFFE4CFEEFF1200E8BC02EF00F01200A4
:0E0A200011EEFEF021EEFEF01DEC04F0FFD70B
:020000040001F9
:08FFF800A4F71DFF62F880F17F
:00000001FF
